:020000040800F2
:10000000A0370020D1010008D5010008D701000861
:10001000D9010008DB010008DD0100080000000034
:100020000000000000000000000000004501000882
:10003000E10100080000000079010008890B0008B8
:10004000E7010008E7010008E7010008E7010008F0
:10005000E7010008E7010008E7010008E7010008E0
:10006000E7010008E7010008E7010008E7010008D0
:10007000E7010008E7010008E7010008E7010008C0
:10008000E7010008E7010008E7010008E7010008B0
:10009000E7010008E7010008E7010008E7010008A0
:1000A000E7010008E7010008E7010008E701000890
:1000B000E7010008E70100087F2D0008E7010008BC
:1000C000E7010008E7010008E7010008E701000870
:1000D000E701000839340008E7010008E7010008DB
:1000E000E7010008E7010008E7010008E701000850
:1000F000E7010008E7010008E7010008E701000840
:10010000E7010008E7010008E7010008E70100082F
:10011000E7010008E7010008E7010008E70100081F
:10012000E7010008E7010008E7010008E70100080F
:10013000DFF80CD003F0A6FD00480047992900081D
:10014000A03700201A4B19680868B0E8F00F80F358
:1001500009884FF0000080F311884EF00D0E7047B3
:100160000000000003480068006880F3088862B659
:1001700000DF00BF08ED00E0EFF309800C4B1A68C8
:1001800020E9F00F106008B54FF0BF0080F3118830
:1001900000F099FA4FF0000080F31188BDE80840A4
:1001A00019680868B0E8F00F80F30988704700BF4D
:1001B0000000002001B44FF0BF0080F3118801BCA3
:1001C000704701B44FF0000080F3118801BC704704
:1001D00005480047FEE7FEE7FEE7FEE7FEE7FEE72D
:1001E000FEE7FEE7FEE7FEE73101000800F1080147
:1001F0004FF0FF32C0E90112C160016100210160CE
:100200007047002101617047426853684B60436842
:100210008B60536899605160416008610168491CB6
:100220000160704710B50B685A1C02D000F108023B
:1002300002E0026904E05268546824689C42FAD9DA
:1002400053684B6099608A60516008610168491C7D
:10025000016010BDD0E901128A60D0E9011251603D
:1002600001694A68824201D182684A6000220261C3
:100270000868401E086070472DE9FF5F9B46DDE976
:100280000E6815468A464420109F00F0C7FB040004
:1002900009D0A8008146EFB338462063D8B3A52221
:1002A000494603F0D1FC002C6DD06FF0030000EB49
:1002B0008500216B3546084420F00707514610227F
:1002C00004F1340003F0D2FC002084F84300052D33
:1002D00000D30425201DE562FFF793FF04F1180009
:1002E000FFF78FFF2461C5F105016462A1615A46E1
:1002F0003846009900F00CFC2060B8F1000F01D0E6
:10030000C8F8004000F030FCFE4FB868401CB860F0
:10031000386801E006E008E0DFF8EC8350B1B86926
:1003200080B336E000F07AFBB7E7204600F0CBFB65
:100330000024B8E73C60B86801282AD1002505EB05
:10034000850108EB8100FFF751FF6D1C052DF6D3E9
:10035000ED486430FFF74AFFEB487830FFF746FF7F
:10036000E9488C30FFF742FFE748A030FFF73EFF37
:10037000E548B430FFF73AFFE3486430786314305F
:10038000B86306E000E026E03868C06AB04200D8F2
:100390003C60E06A3969884200D93861F96A491CD1
:1003A000F9627969884200D9786100EB800108EB35
:1003B0008100211DFFF728FF012400F0DDFBB86953
:1003C00028B13868C06AB04201D200F0C7FB04B05F
:1003D0002046BDE8F09F4FF0FF34F8E770B50546C2
:1003E00000F0C2FBC74E3068854201D1002520E0F5
:1003F000FDB12C46201DFFF72DFFA06A18B104F1B6
:100400001800FFF727FFC048211DA030FFF7FCFEB2
:100410007068401C7060F06A401CF06200F0ACFB39
:10042000B069002807D0002D05D1BDE8704000F06C
:1004300095BB3468DEE770BD2DE9F041B14DE86948
:1004400020B1286A401C2862BDE8F081E868401CA1
:10045000E860E8684FF0FF3670B9686BA96B6963B4
:10046000A863A86A401CA862686B0068A8B1686BA2
:10047000C068C06840682863E868296B8842E3D395
:10048000A14F686B006850B1686BC068C468E968C8
:100490006068814205D22863D6E72E63ECE72E63BD
:1004A000D2E7201DFFF7D6FEA06A18B104F11800AC
:1004B000FFF7D0FEE06A6969884200D9686100EB05
:1004C000800007EB8000211DFFF79EFED9E72DE994
:1004D000F047002700F048FB8A4DE869401EE861BC
:1004E000E869A8BBA86898B3DFF81C82002608F169
:1004F0008C08DFF814921AE0C068C46804F1180090
:10050000FFF7A8FE201DFFF7A5FEE06A6969884293
:1005100000D9686100EB800109EB8100211DFFF724
:1005200073FEE06A2968C96A884200D30126D8F8B8
:10053000001040460029DFD1286A28B909E0FFF7FA
:100540007BFF286A401E2862286A0028F7D104E051
:1005500008E016B9686A012804D100200127686202
:1005600000F0FCFA00F008FB3846BDE8F08770B5F3
:10057000644D044628684460E8682968844205D2CE
:10058000A86BBDE87040091DFFF74CBE686B091DE4
:10059000FFF748FE286B844200D22C6370BD594897
:1005A000C169491CC161704770B50C460346002201
:1005B000FFF7F5FF53491868CD680444A84202D9F3
:1005C000A04202D805E0A04202D8C868844200D9FF
:1005D00001221C6032B10868001DFFF73BFE204677
:1005E000FFF7C5FFFFF773FF002803D1BDE8704098
:1005F00000F0B4BA70BD10B502000FD0FFF7CFFF06
:100600004048C16800688C18001DFFF723FE204693
:10061000FFF7ADFFFFF75BFF002803D1BDE81040F7
:1006200000F09CBA10BD10B5044600F09DFA0CB95C
:1006300034480468E46A00F09FFA204610BD2DE9B2
:10064000F04100270D460646052900D3042500F099
:100650008BFADFF8B080D8F80000864201D100267E
:1006600008E03EB13446E06AA84228D0854204D969
:1006700026B904E0D8F80040F5E706B90127C5F12E
:100680000501E562A161204D00EB8000616905EB89
:100690008000814210D1201DFFF7DCFDE06AD8F810
:1006A00014204146904200D9486100EB800005EBE0
:1006B0008000211DFFF7A8FD0FB100F04FFABDE843
:1006C000F04100F059BA0F49C8690F4A20B1012022
:1006D00048627047401E4861486900EB800052F84C
:1006E000200000284869F5D000EB800002EB800074
:1006F0004268526800F1080342609A4201D1526890
:10070000426003E0000000204C010020D068086037
:10071000704770B5054600F027FABB4E3068854239
:1007200001D1002518E0BDB12C46201DFFF792FD38
:10073000A06A18B104F11800FFF78CFD211DB34821
:10074000FFF762FD00F018FA002D0FD1B06928B153
:10075000BDE8704000F002BA3468E6E7B0680128EE
:1007600002D0BDE87040AEE70020306070BDA74BFE
:10077000426900219A4206D1806AA3F12802904280
:1007800001D000B901210846704770B5040026D099
:100790009D4D2868844222D000F0E6F92046FFF7FC
:1007A000E6FF012817D1201DFFF754FDE06A6969B3
:1007B000884200D96861954900EB8000B43901EBAB
:1007C0008000211DFFF720FDE06A2968C96A884280
:1007D00001D300F0C3F9BDE8704000F0CDB970BDA1
:1007E00070B504460025FFF7C2FF012820D1864ED0
:1007F000F06920B1854804F11801283816E0E06A54
:100800003168C96A884201D3012500E00025201D16
:10081000FFF720FDE06A7169884200D970617B4969
:1008200000EB8000B43901EB8000211DFFF7ECFCE8
:10083000284670BD754CB43C00F0BCF82068012817
:10084000FAD900F08BF9F7E71FB500240094019462
:100850000294234680226EA16F480394FFF70CFD9B
:10086000012809D1FFF7A6FC674801218161C46016
:10087000BDE81F4000F05AB91FBD10B5FFF79AFC44
:10088000614900208861BDE8104000F066B910B5EC
:1008900000F06AF95C48C46800F06EF9204610BDAB
:1008A00010B5FFF787FC5848C468FFF78AFC20465C
:1008B00010BD55488068704770B5534C0D4621688F
:1008C0001831FFF7AFFC2068001DFFF7C3FC681C60
:1008D00004D0E0682844BDE8704048E62168BDE8DF
:1008E00070404A48091DFFF78FBC70B5C068C468E6
:1008F00004F118000646FFF7ADFC434DE86918B156
:100900004248314628380EE0201DFFF7A3FCE06A7C
:100910006969884200D968613C4900EB8000B439BC
:1009200001EB8000211DFFF76FFCE06A2968C96AAE
:10093000884201D3012070BD002070BD32498A6A0F
:100940000260C9684160704770B50D46044600F00A
:100950000BF92868411C14D02B4922688B6A9A42F3
:1009600003D06268CB689A420DD96268CB689B1A43
:10097000834208D2C968891A401A28602046FFF7C6
:10098000DDFF002400E0012400F0F6F8204670BDF1
:100990001D4901204862704708B91B4800680021C2
:1009A000006B02E0491C89B2401C0278A52AF9D0EC
:1009B0008808704770B5144D6868002823D0FFF789
:1009C000EEFD124E143E3068D8B10024FFF77FFDD3
:1009D000002C18D100F0C8F8F068C468201DFFF79B
:1009E00039FCA868401EA8606868401E686000F076
:1009F000C3F8206B00F067F82046BDE8704000F0B7
:100A000062B80124E2E770BD00000020000200206F
:100A100049444C4500000000350800082DE9F0412C
:100A200004460025FFF7BBFD374E06F1080170684C
:100A300001F1080360B93548086000204FF42052E6
:100A40004860C3E900023148C0E90032012070600B
:100A50003CB11034600704D004F00700C0F1080076
:100A60000444601E42F2FF72904227D2264A09686F
:100A7000083201E00A4601464868A04202D20868EE
:100A80000028F7D1994219D01568086810604868A5
:100A90001035001B20280DD90B1958601A484C60DE
:100AA00008305C6800E0104602685768A742FAD335
:100AB0001A60036048683168081A3060FFF707FD64
:100AC0002846BDE8F08110B5002817D0A0F1100429
:100AD000FFF765FD0C496068083100E011460A68BF
:100AE00053688342FAD3226007480C606168026849
:100AF00011440160BDE81040FFF7E9BC10BD024899
:100B000000687047704700003C0000201802002079
:100B100010B5031F4FF080741C601B1F1960191F54
:100B200000230B60143940380A6010BD1D4810B511
:100B3000016841F47F010160016841F07F4101607B
:100B40004FF0E02018494161072101611749002059
:100B50000860FFF707FB002010BD704711494FF0F8
:100B600080501C390860704710B5FFF723FB0F4811
:100B70000168491C016010BD0C490868401E0860EE
:100B800001D1FFF71EBB7047064910B51C394FF065
:100B900080500860FFF70EFBFFF74EFCBDE81040E9
:100BA000FFF70FBB20ED00E03F19010054000020CB
:100BB0002849084328490860704730B50F23C27898
:100BC00001780125F2B1244A126801F1E02102F412
:100BD000E062C2F5E062120AC2F10404D340427836
:100BE000A24084781C401443220181F8002400783C
:100BF00000F01F018D404009800000F1E020C0F8A6
:100C0000005130BD01F01F0085404809800000F10F
:100C1000E020C0F8805130BD104A114001430E4819
:100C2000001F016070470C4A121D0029116801D095
:100C3000014300E08143116070474FF0E021042838
:100C4000086903D020F004000861704740F00400F8
:100C5000FAE700000000FA050CED00E080FFFF1F3E
:100C60008F4910B5884206D10121042000F049FACD
:100C7000002104203BE08B49884206D10121082055
:100C800000F03FFA0021082031E08749884206D170
:100C90000121102000F035FA0021102027E08349BF
:100CA000884206D10121202000F02BFA00212020CB
:100CB0001DE07F49884206D10121402000F021FA41
:100CC0000021402013E07B49884206D10121802089
:100CD00000F017FA0021802009E0774988420AD104
:100CE00084150121204600F00CFA00212046BDE8C1
:100CF000104000F006BA10BD10B50121084600F002
:100D000000FA0021BDE81040012000F0FAB9F0B56A
:100D1000CC78002204F00F03E40601D58C7823433D
:100D20000C784FF00F0C14F0FF0F4FF0010E1BD09A
:100D300005680E880EFA02F42640A64210D19600ED
:100D40000CFA06F725EA070703FA06F5CE783D43C5
:100D5000282E02D0482E02D002E0446100E0046157
:100D6000521C082AE5D305600A88FF2A1CD944686A
:100D7000002202F108060EFA06F50E882E40AE4259
:100D80000ED196000CFA06F7BC4303FA06F7CE78AC
:100D90003C43282E00D14561CE78482E00D1056114
:100DA000521C082AE5D34460F0BD4FF6FF71018064
:100DB000022181700421C1707047024600209268B0
:100DC0000A4200D001207047806880B27047024616
:100DD0000020D2680A4200D001207047C06880B26B
:100DE000704701617047416170470AB10161704706
:100DF00041617047C160704741F480328261816116
:100E000082618169806970472C4B10B51A684FF672
:100E10008074224042EA00100843186010BD28493F
:100E2000C8617047F0B5254C002801DAE36900E09D
:100E30006368450D2E0185B2C0F30157B540C0F37C
:100E40000342032F05D0C6020AD503269640B343BA
:100E500007E023F07062636823F07063636002E070
:100E6000AB4343F0706201B12A43002801DAE2612A
:100E7000F0BD6260F0BD10B58A0721F003040F4990
:100E8000120F21440F238C6893409C438C608B6825
:100E9000904003438B6010BD0949C1F8DC007047E6
:100EA00000080140000C0140001001400014014006
:100EB00000180140001C01400020014000000140DA
:100EC00000002042A548016841F00101016041682D
:100ED000A34A114041600168A24A114001600168C3
:100EE00021F480210160416821F4FE0141604FF44A
:100EF0001F018160704799490A6822F480320A60B4
:100F00000A6822F480220A60B0F5803F07D0B0F56D
:100F1000802F03D1086840F4A0200860704708685B
:100F200040F48030F9E70346002059098B4A012933
:100F30000AD002290AD0516A03F01F02012393400C
:100F40000B4200D0012070471168F5E7116AF3E702
:100F500018B500204FF4A06400903120FFF7E3FFA4
:100F60000099491C0091A14201D00028F5D0312000
:100F7000FFF7D9FF002800D0012018BD774A11687B
:100F800021F0F80141EAC00010607047764908601E
:100F90007047724B5A68084322F47C121043586021
:100FA00070477149086670476C4A516821F0030127
:100FB0000143516070476948406800F00C00704779
:100FC000664A516821F0F001014351607047634A5D
:100FD000516821F4E0610143516070475F4A5168F4
:100FE00021F4605141EAC000506070475B4A00291B
:100FF000517A01D0014300E08143517270475A4950
:10100000C1F8D8007047554A516821F44041014366
:10101000516070475149002281F8202081F820203A
:10102000012802D0042802D1052081F82000704751
:101030004E490860704749490A6A02430A6270478C
:101040004A4944390860704730B5444A5168484BB2
:1010500011F00C0103D0042901D0082901D003604C
:1010600012E05168536801F470114FF0020413F458
:10107000803F04EB914102D053689B0301D53D4B67
:1010800000E03B4B5943016051680F2303EA111103
:10109000394B5C5C0168E14041605468072505EA12
:1010A00014241C5D21FA04F48460546805EAD424F5
:1010B0001B5DD940C1605268032303EA92322E4B74
:1010C0001B1F9A5CB1FBF2F1016130BD234A00297C
:1010D000516901D0014300E08143516170471F4ACB
:1010E0000029916901D0014300E08143916170477B
:1010F0001A4A0029D16901D0014300E08143D1613E
:101100007047164A0029D16801D0014300E08143AD
:10111000D1607047114A0029116901D0014300E0F4
:1011200081431161704711494039086070470E4989
:10113000C86470470949C87170470848416A41F05E
:10114000807141627047054A0146002092680A4258
:1011500000D001207047014988727047001002409A
:101160000000FFF8FFFFF6FE00004242800442420A
:1011700000127A0000093D005C000020FD4A116861
:1011800001F03801014311607047FA490A6822F002
:1011900008020A600A6802430A607047F5490A6853
:1011A00022F010020A600A6802430A607047F148A0
:1011B000F1494160F14941607047EE48EE494160B4
:1011C000EE4941607047EB48016941F080010161DF
:1011D0007047E848016941F0800101617047E549C5
:1011E0000420CA68D20701D001207047CA6852079C
:1011F00001D502207047C968C906FBD50320704796
:1012000000B50346FFF7EBFF02E0FFF7E8FF5B1EC8
:10121000012803D0002B00D1052000BD002BF4D104
:10122000FAE770B505464FF430263046FFF7E8FF81
:10123000042811D1CF4C206940F002002061656183
:10124000206940F0400020613046FFF7D9FF216956
:1012500041F6FD721140216170BD30B54FF430256B
:101260002846FFF7CDFF042810D1C24C206940F07A
:1012700004002061206940F0400020612846FFF70B
:10128000BFFF216941F6FB721140216130BD00B5FD
:101290000346FFF7A4FF02E0FFF7A1FF5B1E012852
:1012A00003D0002B00D1052000BD002BF4D1FAE7BC
:1012B00030B54FF430252846FFF7E9FF042810D158
:1012C000AC4C206940F004002061206940F04000EF
:1012D00020612846FFF7DBFF216941F6FB721140D0
:1012E000216130BDA3490020C969890700D50120CB
:1012F000704770B5A525FFF7F5FF00B100254FF445
:1013000030263046FFF77CFF042827D1994C9A48B5
:10131000A0609A48A060206940F020002061206908
:1013200040F0400020613046FFF76AFF41F6EF765B
:1013300004280ED1206941F6DF7108402061206940
:1013400040F0100020618E4805804FF40050FFF7F8
:1013500057FF052802D021693140216170BDF8B5E1
:10136000064600204FF4005C00900D466046FFF7F3
:1013700047FF042816D17F4C206940F0010020610E
:1013800035806046FFF73CFF41F6FE77042806D122
:10139000B61C280C009630806046FFF731FF2169AB
:1013A00039402161F8BDF0B506464FF400570D46AF
:1013B0003846FFF725FF04280CD16E4C206940F019
:1013C0000100206135803846FFF71AFF2169BA1EF7
:1013D00011402161F0BDF0B506464FF400570D46AF
:1013E0003846FFF70DFF042813D1624C6248A06015
:1013F0006248A060206940F01000206135803846C6
:10140000FFF7FEFE052804D0216941F6EF72114076
:101410002161F0BD2DE9F041C043C7B2C0F30726FA
:10142000C0F30745040E4FF400584046FFF7E8FEAE
:1014300004283CD1DFF83CC14F49CCF808104F4993
:10144000CCF80810DCF8101041F01001CCF81010A6
:10145000FF2F07D04A48083007804046FFF7D0FEEC
:1014600004281BD1FF2E07D045480A30068040468D
:10147000FFF7C6FE042811D1FF2D07D040480C30DD
:1014800005804046FFF7BCFE042807D1FF2C07D09B
:101490003B480E3004804046FFF7B2FE052806D0D8
:1014A000DCF8101041F6EF721140CCF81010BDE8D6
:1014B000F08170B505464FF430263046FFF7A0FEA8
:1014C000042818D12B4C2C48A0602C48A06020691F
:1014D00040F020002061206940F04000206130464B
:1014E000FFF78EFE41F6DF71042805D0052802D0F3
:1014F00022690A40226170BD20690840206120698C
:1015000040F0100020611E480DB1002100E0A5212F
:1015100001803046FFF774FE0528ECD0216941F6C2
:10152000EF721140216170BDF0B5124C07461248B0
:1015300016460D46A0601148A0604FF4005C60465E
:10154000FFF75EFE042814D1206940F010002061EE
:1015500035430B493D43891C45F0F800088060463F
:10156000FFF74EFE052804D0216941F6EF721140C5
:101570002161F0BD0020024023016745AB89EFCD1A
:1015800000F8FF1F1C48C069800870471A48006AAD
:101590007047194900200968890600D50120704765
:1015A000154A0029116901D0014300E0814311610E
:1015B000704701460020104A012903D0D2680A4230
:1015C00003D17047D169C907FBD0012070470A4990
:1015D000C860704708490420CA68D20701D00120BA
:1015E0007047CA68520701D502207047C968C9060A
:1015F000FBD503207047000000200240C54910B50C
:10160000884202D1012144150AE0C349884202D12F
:101610000121041504E0C14988420AD10121CC030B
:101620002046FFF76EFD2046BDE810400021FFF781
:1016300068BD10BD10B54268B94B0C791A400B68F3
:1016400042EA0422134343608268B64B1A40D1E950
:10165000024323434C7942EA440213438360C26A43
:10166000097C22F47002491EC9B242EA0151C162EA
:1016700010BD00210160017141718160C1600121D3
:10168000017470470029816802D041F0010101E036
:1016900021F00101816070470029816802D041F486
:1016A000807101E021F4807181607047002A4268F6
:1016B000C9B201D00A4300E08A43426070478168A2
:1016C00041F00801816070470146002089680907E0
:1016D00000D501207047816841F0040181607047A6
:1016E000014600208968490700D50120704700297C
:1016F000816802D041F4A00101E021F4A0018160E1
:101700007047014600208968490200D501207047D2
:101710004268491E22F4604242EA4131416070470A
:101720000029416802D041F4006101E021F4006128
:101730004160704770B5072609290AD9C568A1F12B
:101740000A0404EB4404A640B543A3401D43C5600E
:1017500007E0056901EB4104A640B543A3401D43E2
:1017600005611F23072A09D2446B521E02EB820235
:1017700093409C4391400C43446370BD0D2A09D2B1
:10178000046BD21F02EB820293409C4391400C43B6
:10179000046370BDC46A0D3A02EB820293409C431D
:1017A00091400C43C46270BD0029816802D041F4AD
:1017B000801101E021F4801181607047C06C80B21B
:1017C000704754484C30006870470029416802D087
:1017D00041F4806101E021F480614160704700299B
:1017E000416802D041F4805101E021F48051416010
:1017F0007047826822F4E0420A4382607047002901
:10180000816802D041F4004101E021F4004181608F
:1018100070470029816802D041F4021101E021F4EF
:10182000021181607047014600208968890200D555
:101830000120704770B5072609290AD9C568A1F1AA
:101840000A0404EB4404A640B543A3401D43C5600D
:1018500007E0056901EB4104A640B543A3401D43E1
:101860000561836BC3F30154121B921C02EB8202CD
:101870001F249440A34391400B43836370BD826B4C
:10188000491E22F4401242EA01518163704708B5B3
:1018900008440090026008BD08B508442830009054
:1018A000006880B208BD42681F4B1A400A4342607C
:1018B0007047416282627047426822F01F020A4309
:1018C00042607047134908310028086802D040F48C
:1018D000000001E020F4000008607047024600208C
:1018E00012680A4200D001207047C9430160704766
:1018F00010B50246002054680B0AC9B20C401168AA
:10190000194202D0002C00D0012010BD6FEA112135
:10191000016070470024014000280140003C014064
:10192000FFFEF0FFFDF7F1FFFFFD3FFF01684FF6FF
:10193000FE72114001600021016041608160C16060
:101940006A496A4A0839904203D1486840F00F005A
:1019500006E0664A1432904204D1486840F0F00034
:1019600048607047614A2832904203D1486840F489
:101970007060F5E75D4A3C32904203D1486840F41C
:101980007040EDE7594A5032904203D1486840F424
:101990007020E5E7554A6432904203D1486840F42C
:1019A0007000DDE7514A7832904203D1486840F038
:1019B0007060D5E74E4A111F904203D1086840F08D
:1019C0000F0006E04A4A1432904204D1086840F001
:1019D000F00008607047464A2832904203D10868F8
:1019E00040F47060F5E7424A3C32904203D1086807
:1019F00040F47040EDE73E4A50329042EAD1086828
:101A000040F47020E5E730B5026847F6F0739A437A
:101A10000C6A8B682343D1E904452C4323438C692A
:101A20002343CC6923434C6A23438C6A23431343E7
:101A30000360CA6842600A6882604968C16030BD5C
:101A40000021016041608160C1600161416181618B
:101A5000C16101624162816270470029016802D060
:101A600041F0010102E04FF6FE7211400160704743
:101A7000002A026801D00A4300E08A4302607047EE
:101A800041607047406880B2704702460020D10034
:101A900002D51749083901E014490839096811428B
:101AA00000D001207047C10003D51149091F08600B
:101AB00070470E4908394860704702460020D1003F
:101AC00002D50B49083901E0084908390968114273
:101AD00000D001207047C10003D50549091F0860E7
:101AE000704702490839486070470000080002400A
:101AF00008040240F94910B5884202D10121C414FA
:101B000086E0B0F1804F09D0F54988420DD101211E
:101B10000220FFF7FFFA0021022064E001210846BD
:101B2000FFF7F8FA002101205DE0EE49884206D176
:101B300001210420FFF7EEFA0021042053E0EA49D6
:101B4000884206D101210820FFF7E4FA002108208D
:101B500049E0E649884206D101211020FFF7DAFA70
:101B6000002110203FE0E249884206D101212020D7
:101B7000FFF7D0FA0021202035E0DE49884202D16B
:101B80000121441444E0DC49884202D10121CC0403
:101B90003EE0DA49884202D101210C0538E0D849FB
:101BA000884202D101214C0532E0D649884206D153
:101BB00001214020FFF7AEFA0021402013E0D24976
:101BC000884206D101218020FFF7A4FA002180205D
:101BD00009E0CE4988420AD1841501212046FFF749
:101BE00099FA00212046BDE81040FFF793BAC84992
:101BF000884202D101210C040AE0C649884202D180
:101C000001214C0404E0C44988420AD101218C041A
:101C10002046FFF776FA2046BDE810400021FFF786
:101C200070BA10BD30B50288AC4CB24DA0420DD098
:101C3000A8420BD0B0F1804F08D0A94B984205D0F4
:101C4000A84B984202D0A84B984203D122F07003CF
:101C50004A881A43A54B984206D0A54B984203D018
:101C600022F44073CA881A4302808A8882850A88CF
:101C70000285A0420AD0A84208D0A54A904205D0C9
:101C8000A44A904202D0A44A904201D1097A018626
:101C90000121818230BD30B5028C22F00102028424
:101CA000028C8388048B22F0020224F073050C88D6
:101CB0002C430D8915434A882A43884DA8420BD0EE
:101CC0008C4DA84208D0924DA84205D0914DA84213
:101CD00002D0914DA8420DD122F008054A8923F483
:101CE00040732A4322F004058A882A438D891D43C4
:101CF000CB892B4383800483C9888186028430BDCD
:101D000070B5028C22F010020284028C8388048B4E
:101D10000D8824F4E6464FF6FF7404EA05253543A2
:101D20000E8922F0200204EA061616434A8804EAC5
:101D300002123243694EB04202D06E4EB04215D10B
:101D400022F080064A8923F4406304EA02123243F7
:101D500022F040068A8804EA021232438E8904EA9D
:101D600086061E43CB8904EA8303334383800583BD
:101D7000C9880187028470BD70B5028C22F480721C
:101D80000284028C8388848B0D8824F0730425439D
:101D90000E894FF6FF7422F4007204EA06261643F9
:101DA0004A8804EA022232434C4EB04202D0514EDD
:101DB000B04215D122F400664A8923F4405304EA64
:101DC0000222324322F480668A8804EA02223243E5
:101DD0008E8904EA06161E43CB8904EA03133343B3
:101DE00083808583C9888187028470BD70B5028C29
:101DF00022F480520284058C8288838B0C8823F421
:101E0000E6464FF6FF7303EA0424344325F40056F4
:101E10000D8903EA053535434E8803EA06362E431D
:101E20002E4DA84202D0334DA84205D122F4804560
:101E30008A8903EA82122A4382808483C988A0F8AF
:101E40004010068470BD828B22F440628283828BB4
:101E50004FF6FF7303EA01210A4382837047828BA6
:101E600022F00C028283828B0A4382837047028BAA
:101E700022F440620283028B4FF6FF7303EA0121D2
:101E80000A4302837047F0B5048C24F010040484E4
:101E9000078B048C4FF6FF7527F4734705EA03336D
:101EA0003B4305EA02221A430C4B05EA011698420D
:101EB0000ED0104B98420BD0B0F1804F08D0084B99
:101EC000984205D0074B984202D0074B984225D143
:101ED00024F02001314341F0100124E0002C0140A6
:101EE0000004004000080040000C004000100040CA
:101EF0000014004000340140004C014000500140FB
:101F00000054014000180040001C00400020004028
:101F100000400140004401400048014024F0A0037B
:101F20000B4343F0100102830184F0BD028B22F0C9
:101F30000C020283028B0A430283704770B5048C43
:101F400024F001040484058B048C4FF6FF7606EA26
:101F50000313134325F0F305F84A2B4390420ED0A8
:101F6000F74A90420BD0B0F1804F08D0F54A90422A
:101F700005D0F54A904202D0F44A904202D124F0B2
:101F8000020201E024F00A020A4342F00101038345
:101F9000018470BD2DE9F84F0D4604460888E74FCF
:101FA000DFF89CC3DFF89C83DFF89C934988AA88FC
:101FB0002B894FF0804A48B304282FD04FF6FF7684
:101FC0000828934632D0208C9E4620F480502084EE
:101FD000A38B208C06EA0132009223F4734306EAB5
:101FE0000B221A4306EA0E331343BC420AD064455F
:101FF00008D0544506D0444504D04C4502D0D34ABD
:10200000944242D120F40050009940E02046FFF76E
:1020100095FFE9882046BDE8F84F87E72046FFF79F
:1020200032FFE9882046BDE8F84F20E7208C20F4F5
:1020300080702084B4F81CE0208C06EA031306EAC2
:1020400001222EF0F30E43EA0B0343EA0E03009243
:10205000BC420AD0644508D0544506D0444504D05B
:102060004C4502D0B94A944203D120F40070009943
:1020700001E020F42060084340F48070A3832084B2
:10208000E9882046BDE8F84FE9E620F4024008431D
:1020900040F48050A3832084E9882046BDE8F84FAF
:1020A000D1E62DE9F0410C46002649880746012576
:1020B00001B90226A288012A00D10225208823899D
:1020C0000028384610D0FFF7DEFEE1883846FFF7DB
:1020D000CEFE23892A4631463846FFF72FFFE18896
:1020E0003846BDE8F04121E7FFF728FFE188384690
:1020F000FFF71CFF23892A4631463846FFF7C3FE07
:10210000E1883846BDE8F041B1E610B50A884B8851
:10211000CC881A438B8823431A430B891A434B8973
:1021200089891A430A43A0F8442010BD4FF6FF7175
:10213000818000210180C1804180017270470021AF
:10214000018041808180C180018141818181C18183
:10215000704700210180418001228280C18001817D
:1021600070470021018041808180C18001814181CF
:10217000818170470029018802D041F0010101E00E
:1021800021F0010101807047002930F8441F02D07E
:1021900041F4004101E0C1F30E0101807047002AC3
:1021A000828901D00A4300E08A438281704781829C
:1021B00070471143A0F848107047002A828901D067
:1021C0000A4300E08A4382817047018921F00701B8
:1021D00001817047028922F070020A430281704730
:1021E00000B50346FFF7F6FF188940F00700188195
:1021F00000BD70B516460D46602904464FF0010239
:1022000031460AD0FFF79AFE29462046FFF7E2FF43
:10221000208940F00700208170BDFFF734FEF3E70E
:1022200030B504894FF6FF7505EA03231343E4B282
:102230000B432343038130BD10B50446FFF7F0FF85
:10224000208940F07700208110BD10B50446FFF7CB
:10225000E7FF208940F48040208110BD0185828203
:102260007047028822F070020A430280704770B5FE
:102270000589048B068C25F007050D434FF6FC41BC
:102280000C4040F201110C434FF6FF7101EA0311BB
:1022900026F022061143314305810483018470BD79
:1022A000028B22F070020A4302837047028B4FF6C2
:1022B000FF7322F4E04203EA0121114301837047D6
:1022C000828B22F070020A4382837047828B4FF622
:1022D000FF7322F4E04203EA012111438183704736
:1022E0000029018802D041F0800101E021F0800145
:1022F000018070470029818802D041F0040101E08B
:1023000021F00401818070470029818802D041F0CA
:10231000080101E021F008018180704700298188CF
:1023200002D041F0010101E021F0010181807047FC
:10233000028B22F008020A4302837047002C0140FE
:10234000003401400004004000080040000C004040
:10235000028B4FF6FF7322F4006203EA012111435E
:102360000183EAE7828B22F008020A438283E4E7D2
:10237000828B4FF6FF7322F4006203EA01211143BE
:102380008183DAE7028B22F004020A430283D4E756
:10239000028B4FF6FF7322F4806203EA012111439E
:1023A0000183CAE7828B22F004020A438283C4E7D6
:1023B000828B4FF6FF7322F4806203EA01211143FE
:1023C0008183BAE7028B22F080020A430283B4E7DA
:1023D000028B4FF6FF73C2F30E0203EA0121114391
:1023E0000183AAE7828B22F080020A438283A4E75A
:1023F000828B4FF6FF73C2F30E0203EA01211143F1
:1024000081839AE7028C22F002020A43028494E755
:10241000028C22F008020A4302848EE7028C4FF6F7
:10242000FF7322F0200203EA01111143018484E7C3
:10243000028C4FF6FF7322F0800203EA0111114370
:1024400001847AE7028C4FF6FF7322F4007203EAEC
:1024500001211143018470E7028C4FF6FF7322F4CF
:10246000006203EA01211143018466E7028C4FF602
:10247000FF7322F4005203EA0131114301845CE747
:1024800010B50123048C8B409C430484038C8A4048
:102490001343038410BD10B50423048C8B409C436C
:1024A0000484038C8A401343038410BD30B5012497
:1024B000058C00F118038C40A543058489B10829D7
:1024C0000FD0091FC1F34E001844016821F4E04108
:1024D000016001684FF6FF7303EA022211430160B5
:1024E00030BD03EB5100016821F07001016001680B
:1024F000F4E70029018802D041F0020101E021F057
:102500000201018019E70029018802D041F004018D
:1025100001E021F0040101800FE70029818802D049
:1025200041F0800101E021F08001818005E702880F
:1025300022F00802028002880A430280FDE68288B7
:1025400022F07002828082880A438280F5E6028946
:1025500022F00702028102890A430281EDE6028924
:1025600022F08002028102890A430281E5E6818429
:10257000E3E68185E1E68186DFE60187DDE68187A6
:10258000DBE6A0F84010D8E6028822F44072028010
:1025900002880A430280D0E6808ECEE6008FCCE629
:1025A000808FCAE6B0F84000C7E6808CC5E6008D93
:1025B000C3E602460020128A0A4200D00120BCE68F
:1025C000C9430182B9E602460020138A92890B4270
:1025D00002EA010202D0002A00D00120ADE6C94380
:1025E0000182AAE6C44910B588420AD101218C03B0
:1025F0002046FEF786FD2046BDE810400021FEF78C
:1026000080BDBE49884202D101214C0410E0BC4982
:10261000884202D101218C040AE0BA49884202D1E1
:102620000121CC0404E0B84988420AD101210C05FB
:102630002046FEF76FFD2046BDE810400021FEF762
:1026400069BD10BD30B50446008A85B00D464CF614
:10265000FF710840E98801432182A0894EF6F311F9
:102660000840A9882A8911436A8902431143A1813C
:10267000A08A4FF6FF410840A9890143A18268461C
:10268000FEF7E2FC9C48844201D1039800E00298E6
:10269000A189090400EBC00101EB0010296801D5F4
:1026A000490000E08900B0FBF1F06422B0FBF2F1D8
:1026B00009010B096FF018056B4300EB8300A38938
:1026C0001D044FF0320306D503EBC000B0FBF2F05F
:1026D00000F0070005E003EB0010B0FBF2F000F0A3
:1026E0000F000843208105B030BD4FF41651016042
:1026F00000218180C18001810C224281818170474B
:1027000010B5028A4FF2FF031A400B884C8823430E
:102710008C88C9880C4323431343038210BD0021D6
:10272000018041808180C18070470029818902D069
:1027300041F4005101E021F400518181704710B54E
:10274000C1F3421301F01F040121A140012B07D066
:10275000022B07D01430002A026805D00A4304E097
:102760000C30F8E71030F6E78A43026010BD002A0B
:10277000828A01D00A4300E08A4382827047028A3B
:1027800022F00F020282028A0A4302827047828983
:1027900022F40062828182890A4382817047002983
:1027A000818902D041F0020101E021F00201818122
:1027B0007047028A22F020020282028A0A430282C1
:1027C00070470029018A02D041F4804101E021F4E0
:1027D000804101827047C1F3080181807047808881
:1027E000C0F308007047818941F001018181704781
:1027F000028BD2B20283028B42EA0121018370472D
:10280000028B02F47F420283028B0A4302837047E9
:102810000029818A02D041F0200101E021F020014D
:10282000818270470029818A02D041F0100101E0C5
:1028300021F01001818270470029818A02D041F085
:10284000080101E021F00801818270470029818997
:1028500002D041F4004101E0C1F30E0181817047D3
:102860000029818A02D041F4006101E021F4006175
:1028700081827047828A22F004028282828A0A431D
:10288000828270470029818A02D041F0020101E072
:1028900021F00201818270470246002012880A421C
:1028A00000D001207047C9430180704770B501F026
:1028B0001F0501260024C1F3421306FA05F2012B7D
:1028C0000FD0022B0FD0838A4FEA112100881342C8
:1028D00006FA01F600EA060001D000B10124204604
:1028E00070BD8389F0E7038AEEE70A0A012191406F
:1028F000C943018070470000003801400044004097
:1029000000480040004C00400050004008B5FDF772
:10291000BEFF2C4D2C4E009002216846FDF744FE70
:10292000641C2878E4B278B12A4A0020274F28494D
:10293000138803E03A5C0A54401CC0B29842F9D3B1
:1029400000F01CFE002028700F2CE5D9002400F0B8
:10295000DFFA032000F0CAFB1F49086000F00AFB01
:102960001E4F388880B200F067FB388880B201F0D3
:10297000D3F81B48008880B201F02EF9194800886E
:1029800080B201F044F9FEF7BAF831688842C3D941
:10299000FEF7B5F83060BFE71FB500F06BF9002017
:1029A0000121CDE900100290034680220EA1039080
:1029B000AFF2A700FDF760FCFDF746FF04B0002072
:1029C00010BD00000A0100206C000020BC2E002079
:1029D000280100200C010020E4000020A8000020B5
:1029E000C4000020C80000205461736B3100000057
:1029F0003EB501210420FEF77BFBFE4C2046FFF78D
:102A000079F82046FFF7E1FB42F62F200021ADF8D0
:102A10000400ADF80010ADF80610ADF802106946DC
:102A20002046FFF7FFF801212046FFF759FC01225D
:102A300041212046FFF7B3FB3EBD10B5012186B012
:102A40004802FEF74CFB4FF40040FEF7DCFA002191
:102A50004FF46020CDE902018DF804100120E64C0E
:102A600000918DF805108DF8100069462046FEF79C
:102A7000E1FD00212046FEF70FFE01212046FEF772
:102A800001FE2046FEF71BFE2046FEF71DFE002835
:102A9000FAD12046FEF71FFE2046FEF721FE002851
:102AA000FAD106B010BD2DE9F84F012140F26D10AA
:102AB000FEF715FB40F2C110ADF8000010258DF8AF
:102AC000035003248DF802406946CC48FEF71FF9F5
:102AD00047F61B70ADF80000DFF824B38DF8035003
:102AE00001268DF8026069465846FEF710F96F021C
:102AF000ADF800704FF018098DF803908DF8024082
:102B000069465846FEF703F98020ADF800004FF003
:102B100048088DF803808DF8024069465846FEF754
:102B2000F6F80820ADF80000DFF8D8A28DF80350C1
:102B30008DF8024069465046FEF7E9F8A802ADF864
:102B400000008DF803508DF802406946AE48FEF74C
:102B5000DEF8ADF800708DF803508DF8024069463C
:102B60005046FEF7D4F8ADF800608DF803800220DF
:102B70008DF802006946A548FEF7C9F8FE20ADF8B9
:102B8000000000258DF8035069469C48FEF7BFF809
:102B9000ADF800608DF8035069465846FEF7B7F867
:102BA000ADF800708DF803908DF8024069465046EC
:102BB000FEF7ADF801210803FEF734F9BDE8F88F00
:102BC00008B500214FF00060FEF726F84FF4407082
:102BD000FDF7EEFF1E208DF8000000208DF80100AB
:102BE00003208DF8020001208DF803006846FDF7F0
:102BF000E4FF08BD0420FEF720B810B5FEF762F927
:102C00004FF480342046FEF776F9FEF7A1F901284B
:102C100022D10020FEF7D4F90020FEF7DFF9A01141
:102C2000FEF7D5F90220FEF7A9FA1020FEF7B6FA52
:102C30004FF4E0112046FEF7ACF90120FEF7B1F9A0
:102C40003920FEF770F90028FAD00220FEF7ACF91F
:102C5000FEF7B1F90828FBD101218920FEF73FFAE0
:102C600001210846FEF732FA0121BDE81040042098
:102C7000FEF735BA70B5FFF7C0FF0420FDF7DDFFA2
:102C8000FFF79EFFFFF70FFF4FF4E13000F030FB3E
:102C9000FFF7D3FE4FF4E150FFF7AAFE4FF47A742A
:102CA00041F279752146284600F003FE4FF448763C
:102CB00031465748FFF765FC2146284600F026FDBF
:102CC0003146E006FFF757FCBDE870400A21084690
:102CD00000F027BE10B501218CB00846FEF7F6F9CA
:102CE0004C4C2046FEF722FE434800214C30009019
:102CF0004948CDE901010620CDE903018020059076
:102D00004000069080000790202008900002CDE946
:102D1000090169462046FEF776FE01212046FEF7AE
:102D20009CFE0CB010BD1FB504466846FFF707FABD
:102D300060210020ADF80010ADF80640ADF80800A5
:102D400001202C4CADF8020069462046FEF7D8FF62
:102D500008212046FFF7FCFA01212046FFF714FA6C
:102D60001FBD10B52448FEF729FD2B491839C8604E
:102D70002948103102880A604088486010BD2DE95A
:102D8000F0411C4C01212046FFF71DFC002871D0AA
:102D900001212046FFF723FC1F4D0024183D6888C1
:102DA000401C80B26880B0F5347F01D36C800AE0AB
:102DB000782808D3B421783890FBF1F0C0B200F045
:102DC00026F9E88003E0002000F021F9002000F05F
:102DD000F7F91248E988405CC0074FF0000023D0A3
:102DE00000F02DF90E4909684843000BC82800D2AD
:102DF000C82017E0000800400024014000080140FE
:102E0000000C014000140140002001400018014066
:102E1000000400400800024088000020B8000020A4
:102E2000AC00002080B205E000F009F920B10020DC
:102E300000F005F900F044FE2D48E988DFF8B48081
:102E40002D4F405C4FF48056012814D1A8883C28AF
:102E500011D2002000F0F3F8C8280CD931464046C2
:102E6000FDF7BFFF0121386800F08EFEA888401CE6
:102E7000A88008E03AE00021386800F085FE31467D
:102E80004046FDF7B0FF2889E988884200D0AC8031
:102E900068884FF4B471B0FBF1F201FB1204A4F5A1
:102EA000AE70164F2C804FF480610C2808D303209D
:102EB000B4FBF0F0C00703D03846FDF794FF02E002
:102EC0003846FDF78EFF0E4833463A46008881B2F9
:102ED0000C4800F08DF90C484FF400633A46008826
:102EE00081B20A4800F084F9E8882881BDE8F081C1
:102EF000B400002000140140B0000020000C01408C
:102F0000A4000020FA000020A0000020EA00002019
:102F100070B5B34C4FF4804529462046FDF757FF66
:102F200058B1002229462046FDF75FFF00222046C7
:102F3000BDE870400821FDF758BF29462046FDF73F
:102F400050FF0122F3E710B5A64C014607230122EA
:102F50002046FEF7EFFB01212046FEF7C8FB0221C9
:102F60002046FEF7BBFC0028F9D02046BDE8104003
:102F7000FEF724BC2DE9F0470026DFF86CA20124FF
:102F8000B146AAF1240800250AEBC4172046FFF732
:102F9000DAFF47F825006D1CEDB20644202DF5D36D
:102FA00058F8240076093044400848F824005A288C
:102FB00003D95A3848F8240001E048F82490641CEA
:102FC000E4B2092CDFD389490878401CC0B20870EC
:102FD000202801D381F80090D8F8042052008A619B
:102FE000D8F80820C2EBC2020A62D8F80C20CA61E5
:102FF000D8F8102002EB82024A63D8F8140000EBE4
:1030000080008863BDE8F0870020704770477749EB
:10301000887070477548807870470021C140C807A4
:1030200000D0012070477148407870476F49C880D0
:1030300070476E48C08870476C49088170476B487C
:1030400000897047694869490C30007800F00F002A
:10305000C862283100F001020A70C0F340024A70D1
:10306000C0F380028A70C008C87070475F485F492B
:103070000C300078C0F303100863243100F0010223
:103080000A70C0F340024A70C0F380028A70C00820
:10309000C87070475548FF210C30544A0088A1EB96
:1030A0001020C0B20109C2E9120100F00F0001EBCB
:1030B0008101106500EB410070474C48FF210C3046
:1030C0004A4A0068A1EB1040C0B20109C2E90F01F1
:1030D00000F00F0001EB8101506400EB41007047EC
:1030E00001E0401EC0B20028FBD170472DE9F05F1F
:1030F0004FF4007B3A4F064600245D465946384659
:10310000FDF76FFE0A20FFF7EBFF29463846FDF773
:103110006AFE0A20FFF7E4FF29463846FDF761FE04
:103120000A20FFF7DDFF4FF4807A51463846FDF75D
:1031300058FEDFF8B890042E09F10C092FD2802137
:103140003846FDF73AFE00B101240025B846681E56
:10315000574600EBC60615E04046FDF744FE052045
:10316000FFF7BEFF39464046FDF73BFE0520FFF75F
:10317000B7FF640080214046FDF71FFE00B1641CCC
:103180006D1CEDB2AE423946E6DC45464046FDF7E1
:103190002AFE59462846FDF724FEC9F800400020C3
:1031A000FFF78BFF114B18610020FFF773FF586189
:1031B000FFF75CFFFFF746FFD9F80000BDE8F09F7E
:1031C0000A49087170470948007970470749243156
:1031D000085C012800D0002070470448C078704780
:1031E000000C0140002401403C2A002090000020F7
:1031F00070B5064600880D46002100EB400086B001
:10320000B5EB400F03D34C1E04EB400085B268467B
:1032100036F8114004EB4404C5EB4404641E20F866
:103220001140491CC9B20829F2D32A48BDF8005000
:10323000294C01888D4209D2BDF80200884205D38D
:1032400019461046FDF7CDFD00200CE0BDF8020048
:1032500088420BD2BDF80400884207D319461046B5
:10326000FDF7C1FD0EE0208006B070BDBDF8040082
:1032700088420AD2BDF80600884206D31946104695
:10328000FDF7AFFD2088401CEDE7BDF80600884241
:1032900003D2BDF808008842E0D2BDF80800884299
:1032A00003D2BDF80A008842E8D2BDF80A0088427D
:1032B00003D2BDF80C008842D0D2BDF80C00884281
:1032C00003D2BDF80E008842D8D2BDF80E00884265
:1032D000C4D3C9E772000020E800002070476849A5
:1032E0000A885206FCD5664AC1B2121D1180704789
:1032F000F0B5064691B0012144F20400FDF7EFFE5F
:1033000001210846FDF7E2FE01214804FDF7F0FE29
:103310005B4D2846FFF766F96815ADF83C000324BD
:103320008DF83E401820574F8DF83F000FA93846C2
:10333000FDF7EDFC2815ADF83C0004208DF83F00AA
:103340000FA93846FDF7E3FC25208DF840008DF8E5
:1033500041408DF8424001208DF8430010A8FDF750
:103360002CFC0024ADF834400C20ADF83040ADF812
:1033700036000B96ADF83240ADF838400BA9284620
:10338000FFF760F9012240F224412846FFF7D7F900
:10339000012240212846FFF7EAF901212846FFF7DC
:1033A000C4F9394D2846FEF7C1FA35486946001D73
:1033B00000903648CDE90104C820CDE903048020FF
:1033C000CDE905044001CDE90840079428460A9458
:1033D000FEF719FB01212846FEF73FFB11B0F0BDB7
:1033E00010B504460021FEF738FBC8212046FEF741
:1033F00047FB2046BDE810400121FEF72EBB2DE91A
:10340000F0410E46074600241D4D0BE040212846A2
:10341000FFF742FA0028F9D0395D2846FFF7DBF9BB
:10342000641CE4B2B442F1D340212846FFF734FAD9
:103430000028F9D0BDE8F08170B5114C40F2244667
:1034400031462046FFF732FA002818D02046FFF711
:10345000C6F90D4D2846FEF715FBC0F1C8020C4811
:10346000012142800170D1B20848FFF7C8FF314600
:103470002046FFF73AFA2846BDE87040B0E770BD35
:10348000003801400008014058000240BC2E0020D6
:103490000A01002030B50B4605E010C8CD1A5B1EAE
:1034A00042F825409BB2002BF7D130BD7FB5924D3D
:1034B00000246E146A4601216019FFF7EBFF0098A3
:1034C000401C02D0241DB442F4D304B0601970BD76
:1034D0002DE9FF470E4605464FF00008FDF767FE51
:1034E000864FB87820B12846FDF79BFE87F802800A
:1034F0000024E9460020494600EB8402B25C41F812
:103500002020401CC0B20428F6D3DDE9000100EB06
:1035100001200299039A090401EB0261014405EBC1
:103520008400B960FDF71BFF641CE4B2C7F8088093
:10353000082CDFD3FDF747FEBDE8FF8770B51346C3
:1035400029B1B0F1006F02D36D4CA04205D3002029
:1035500070BD40C81B1F40C101E0694D2D1F042BE9
:1035600007D3A842F5D904E010F8015B01F8015B2C
:103570005B1E0BB1A042F7D3D01A70BD2DE9F0410C
:10358000604D5E4C00272F600126E068C5E9020609
:103590000A22A5F20C41FFF7D1FFA780A5F20C414A
:1035A0004FF47C72B302A0880F5CFF2F0FD09042C3
:1035B00001D36670A670103080B2A0809842F2D31A
:1035C000A868BDE8F0414D491022183180E781B26A
:1035D0006161E268000911442161A96047492070D6
:1035E00018310870ECE72DE9F74F8346A0F100642D
:1035F0004FF6FF70029D884684420DD265B1B8F146
:10360000000F09D0FDF7D3FDA70AC4F34806C6F59D
:103610000074A5424AD94AE00020BDE8FE8F402F41
:1036200047D24FF0006000EB872082464FF4806263
:103630003549FFF783FF344900204FF6FF7201EB55
:10364000460904E039F81010914202D1401CA04212
:10365000F8D3A04218D200265046FDF7E2FD042818
:1036600027D104E038F8161029F81610761CA64267
:10367000F8D34FF4007650463246234900F01FF845
:10368000B04208D02D1A14E022464146584600F0B8
:1036900016F8A042F6D108EB44080BEB440B2D1BA7
:1036A00000264FF400747F1CA54200D22C46002D4A
:1036B000B5D1FDF788FD0298401B4000ADE72DE92C
:1036C000F0410F4F0D46064690461446BF1E0CE0D3
:1036D000BE420CD829883046FDF765FE308829881F
:1036E000884204D1641EAD1CB61C002CF0D1A8EB9E
:1036F0000400BDE8F081000000F80008100100207F
:1037000000000108903300208E2F002070B50D4678
:103710000446012188B00846FDF7EAFC0121052096
:10372000FDF7DDFC0126ADF81C6018208DF81F00A8
:1037300003208DF81E0007A9D848FDF7E8FAADF878
:1037400014400020ADF81050ADF81600ADF812008E
:10375000B40704A92046FEF765FA6846FEF7EFFCB9
:1037600064206021ADF80600ADF800100220ADF82D
:103770000800ADF8026069462046FEF78CFA082181
:103780002046FEF7D5FD01212046FEF7A9FD0121C7
:103790002046FEF7F9FC08B070BD30B50D46044672
:1037A00089B001210420FDF7A3FC01210820FDF7C9
:1037B00096FC4022ADF81C2018228DF81F20032013
:1037C0008DF81E0007A9B648FDF7A1FAADF8144020
:1037D0000020ADF81050B34CADF81600ADF8120053
:1037E00004A92046FEF71EFA6846FEF7A8FC6021F1
:1037F000ADF800100121ADF8021064210220ADF8EF
:103800000610ADF8080069462046FEF744FA082184
:103810002046FEF78DFD01212046FEF761FD09B02F
:1038200030BD30B50D46044689B0012142F210008A
:10383000FDF755FC4022ADF81C2018228DF81F2002
:1038400003208DF81E0007A99748FDF760FAADF830
:1038500014400020ADF81050944CADF81600ADF8AF
:10386000120004A92046FEF7DDF96846FEF767FC62
:103870006021ADF800100121ADF802106421022092
:10388000ADF80610ADF8080069462046FEF703FAC9
:1038900008212046FEF74CFD01212046FEF720FDC1
:1038A00001212046FEF770FC01212046FEF762FC54
:1038B000B5E770B50D46044688B001210220FDF73A
:1038C00017FC01210920FDF70AFC0226ADF81C6057
:1038D00018208DF81F0003208DF81E0007A97048DE
:1038E000FDF715FAADF804400020ADF80050704C1B
:1038F000ADF80600ADF8020069462046FEF792F9E1
:103900006021ADF80C100120ADF80E00ADF8146088
:1039100003A92046FEF76AFA08212046FEF728FD93
:1039200039E7F0B50E46074689B0012140F604009C
:10393000FDF7D5FB01210C20FDF7D1FB4FF4807082
:10394000ADF8100018258DF8135003248DF812409F
:1039500004A95248FDF7DBF94FF40050ADF8100010
:103960008DF813508DF8124004A94D48FDF7CFF99A
:103970000024504DADF81870ADF81460ADF81A4041
:10398000ADF8164005A92846FEF74CF96846FEF743
:10399000D6FB6020ADF800000120ADF80200ADF8C4
:1039A000084069462846FEF776F90420ADF8040081
:1039B000ADF80C40ADF80A40ADF80E406946284617
:1039C000FEF769F908212846FEF7B2FC01212846D6
:1039D000FEF786FC01212846FEF7D6FB012128468A
:1039E000FEF7C8FB09B0F0BD70B50023002A30D047
:1039F000314C4FF48036B4FBF2F52C460022B44231
:103A000008D35B1C9BB25C1CB5FBF4F4521C92B255
:103A1000642AF4D35A1CB5FBF2F292B251436424E7
:103A200091FBF4F189B2062813D2DFE800F0030C11
:103A3000131D262E1F482C30521E0280001F0380AB
:103A40001C4834300EE04FF08040521E82850385C2
:103A5000818670BD16482C30521E0280001F0380E4
:103A600013484030018070BD0E482C30521E028039
:103A7000001F03800B483430F4E71048521E0280C8
:103A8000001F03800D480C30ECE708482C30521E14
:103A90000280001F038005483830E3E7000801403A
:103AA000000C0140000800400010014000340140BB
:103AB00000040040002C014000A24A042C0C0040ED
:103AC00070B505002C484FF0000420D00121FEF70E
:103AD00051FB05EB450029494000B1FBF0F21146CE
:103AE00000204FF48033994208D3641CA4B2611CB7
:103AF000B2FBF1F1401C80B26428F4D3601CB2FB2D
:103B0000F0F01D492C310880081F048070BDBDE80D
:103B100070400021FEF72EBB70B51948194D164CA8
:103B20000068297882B20A2A13D931B1B2F5FA5F56
:103B30000ED2BDE8704080B2C2E70122412120468A
:103B4000FEF72DFB01212046FEF714FB0120287013
:103B500070BD09B10020287000212046FEF70AFB45
:103B600001212046FEF72FFD0028F1D02046BDE8B8
:103B700070400121FEF733BD0008004000A24A0456
:103B8000A80000204801002070B5114D04000BD0A2
:103B900061B101212846FEF7EDFA2246BDE87040EA
:103BA00032210020FFF720BF00290FD1024600215B
:103BB0000846FFF719FF4FF400510648FDF713F9C7
:103BC0002846BDE870400021FEF7D4BA70BD000061
:103BD000002C0140000C014070B504004FF08045FE
:103BE0000AD001212846FEF7C5FA2246BDE87040FA
:103BF00032210120FFF7F8BE012200211046FFF715
:103C0000F3FE2846BDE870400021FEF7B3BA70B558
:103C10000C4D04000AD001212846FEF7ABFA2246DB
:103C2000BDE8704032210220FFF7DEBE01220021F4
:103C30000220FFF7D9FE2846BDE870400021FEF7BC
:103C400099BA000000040040D2B201E000F8012B54
:103C5000491EFBD270470022F6E710B513460A460C
:103C600004461946FFF7F0FF204610BD10B5044684
:103C700004E00B7800F8013B03B1491C521EF8D256
:103C8000204610BD064C074D06E0E06840F00103F9
:103C900094E8070098471034AC42F6D3FCF74CFA8E
:103CA0001C3D00083C3D000870B58C1810F8015B05
:103CB00015F0070301D110F8013B2A1106D110F8C5
:103CC000012B03E010F8016B01F8016B5B1EF9D1C9
:103CD0002B0705D40023521E0DD401F8013BFAE74F
:103CE00010F8013BCB1A921C03E013F8015B01F8BA
:103CF000015B521EF9D5A142D8D3002070BD02E06D
:103D000008C8121F08C1002AFAD170477047002066
:103D100001E001C1121F002AFBD170473C3D0008A1
:103D2000000000204C010000A83C00088C3D000869
:103D30004C010020543600000E3D000801301AFFEF
:103D400001910216281AAA0145020406082D010253
:103D5000030404057E060708091216122D123412F8
:103D60004B1252125912701277120C1223122A128D
:103D7000411248124F126602146D12F839C469C814
:0C3D80002B0506C607140A0B0C0D0E0FD5
:0400000508000131BD
:00000001FF
