:020000040800F2
:10000000284A0020590200085D0200085F0200082B
:100010006102000863020008650200080000000099
:10002000000000000000000000000000CD010008FA
:10003000690200080000000001020008770E0008B5
:100040006F0200086F0200086F0200086F020008CC
:100050006F0200086F0200086F0200086F020008BC
:100060006F0200086F0200086F0200086F020008AC
:100070006F0200086F0200086F0200086F0200089C
:100080006F0200086F0200086F0200086F0200088C
:100090006F0200086F0200086F0200086F0200087C
:1000A0006F0200086F0200086F0200086F0200086C
:1000B0006F0200086F020008DF3500086F020008B9
:1000C0006F0200086F0200086F0200086F0200084C
:1000D0006F0200086F0200086F0200086F0200083C
:1000E0006F0200086F0200086F0200086F0200082C
:1000F0006F0200086F0200086F0200086F0200081C
:100100006F0200086F0200086F0200086F0200080B
:100110006F0200086F0200086F0200086F020008FB
:100120006F0200086F0200086F0200086F020008EB
:1001300000F002F800F03AF80AA090E8000C8244BF
:100140008344AAF10107DA4501D100F02FF8AFF29C
:10015000090EBAE80F0013F0010F18BFFB1A43F0A5
:1001600001031847F038000010390000103A24BF8E
:1001700078C878C1FAD8520724BF30C830C144BF0C
:1001800004680C607047000000230024002500264E
:10019000103A28BF78C1FBD8520728BF30C148BFEA
:1001A0000B6070471FB51FBD10B510BD03F017FCE5
:1001B0001146FFF7F7FF03F052F803F035FC03B4E4
:1001C000FFF7F2FF03BC03F03DFC00001A4B196877
:1001D0000868B0E8F00F80F309884FF0000080F362
:1001E00011884EF00D0E70470000000003480068B3
:1001F000006880F3088862B600DF00BF08ED00E009
:10020000EFF309800C4B1A6820E9F00F106008B575
:100210004FF0BF0080F3118800F052FB4FF0000058
:1002200080F31188BDE8084019680868B0E8F00F4D
:1002300080F30988704700BF0000002001B44FF030
:10024000BF0080F3118801BC704701B44FF000007B
:1002500080F3118801BC704708480047FEE7FEE7BD
:10026000FEE7FEE7FEE7FEE7FEE7FEE7FEE7FEE766
:1002700003480449024A044B70470000310100085A
:1002800028460020284A00202846002000F10801C6
:1002900041604FF0FF31816000F10801C1600161F0
:1002A0000021016070470021016170474268536876
:1002B0004B6043688B60536899605160416008618E
:1002C00003685B1C0360704710B502460B685C1C3A
:1002D0000CB9106907E002F1080000E040684468CA
:1002E00024689C42FAD944684C604C68A1608860DC
:1002F00041600A611468641C146010BDD0E90132C9
:100300009A60D0E901235A6001694A68824201D1AA
:1003100082684A60002202610A68521E0A607047C1
:1003200010B5002407E004EB8401F94A02EB8100D8
:10033000FFF7ACFF641C052CF5D3F648FFF7A6FFCA
:10034000F548FFF7A3FFF548FFF7A0FFF448FFF7D4
:100350009DFFF448FFF79AFFEE48F3490860EE4826
:10036000F249086010BD2DE9F04104460E461546DD
:100370009846069F1022314604F1340003F0B8FA83
:10038000002143200155052D00D30425E562201DE1
:10039000FFF789FF04F11800FFF785FF2461C5F11D
:1003A0000500A0616462BDE8F08170B505460E46A7
:1003B000442000F08FFC044694B11EB9A80000F060
:1003C00089FC00E030462063206B20B9204600F015
:1003D000E2FC002404E0A900A522206B03F080FACF
:1003E000204670BD2DE9FF4F81B0804615469946E5
:1003F000DDE90E7A28461099FFF7D7FF0446002C56
:1004000056D0681E216B01EB800B2BF0070B00957B
:100410003A462046119B0299FFF7A5FF4A464146FE
:10042000584600F0E3FC2060BAF1000F01D0CAF892
:10043000004000F00BFDBE480068401CBC4908604D
:10044000BC48006840B9BB48046008460068012801
:100450000CD1FFF765FF09E0B748006830B9B5482F
:100460000068C06AB84201D8B2480460B349E06A83
:100470000968884202D9B149E06A0860B04800685A
:10048000401CAF490860AF49E06A0968884202D958
:10049000AC49E06A0860E16A01EB81019C4A02EB29
:1004A0008100211DFFF702FF012600F0D8FC01E0CA
:1004B0004FF0FF36012E09D19F48006830B19D48AA
:1004C0000068C06AB84201D200F0BAFC304605B0FC
:1004D000BDE8F08F70B5044600F0B8FC95480068A0
:1004E000844200D1002414B99248006800E02046FC
:1004F0000546281DFFF702FFA86A18B105F118008C
:10050000FFF7FCFE291D8648FFF7D0FE8E480068E5
:10051000401C8D4908608A480068401C8849086072
:1005200000F09DFC8448006810B10CB900F088FC14
:1005300070BD70B585480068002866D184480068A1
:10054000401C834908600846006808BB7649086873
:1005500076490968744A1160744908607D490968E0
:10056000491C7C4A116070490968096809B9012170
:1005700000E0002121B14FF0FF31774A116006E021
:1005800069490968C968CC68734A6168116000BF2D
:100590006F48006870490968884235D300BF6248D7
:1005A0000068006808B9012000E0002020B14FF089
:1005B000FF306949086026E05B480068C068C4688D
:1005C000656863480068A84202D2634805601AE083
:1005D000201DFFF793FEA06A18B104F11800FFF781
:1005E0008DFE5849E06A0968884202D95549E06A97
:1005F0000860E16A01EB8101454A02EB8100211D9F
:10060000FFF754FECBE700BF04E054480068401CED
:100610005249086070BD70B5002500F017FC4B48CA
:100620000068401E494908600846006800284CD10F
:100630003F480068002848D0002621E03748C068BD
:10064000C46804F11800FFF759FE201DFFF756FE9D
:100650003C49E06A0968884202D93A49E06A086080
:10066000E16A01EB81012A4A02EB8100211DFFF7BB
:100670001DFE3049E06A0968C96A884200D3012634
:100680002648006808B9012000E000200028D5D0E5
:100690003248006860B106E0FFF74BFF2F48006862
:1006A000401E2E4908602D4800680028F4D101261C
:1006B000012E03D02A480068012805D10125002019
:1006C0002749086000F0BCFB00BF00F0C8FB2846CB
:1006D00070BD10B504461748006844601C480068A7
:1006E000844207D213480168091D10480068FFF7CB
:1006F000EBFD0CE00F480168091D0B480068FFF78F
:10070000E3FD15480068844201D21348046010BD1F
:10071000E000002044010020580100206C0100206E
:100720008001002094010020040000200800002027
:1007300010000020000000202000002018000020F1
:10074000340000201C0000200C00002024000020A9
:100750001400002030000020380000202800002075
:100760002C000020F8480068401CF74908607047DA
:100770002DE9F04104460F464FF00008FFF7F2FF65
:100780002068C519F14920680968884209D920689C
:10079000A8420FD9ED48006885420BD94FF00108F7
:1007A00008E02068A84203D8E8480068854201D9DB
:1007B0004FF001082560B8F1000F07D0E448006849
:1007C000001DFFF79BFD2846FFF783FFFFF723FF80
:1007D00006460EB900F034FBBDE8F08170B5044662
:1007E00000267CB1FFF7BEFFD84800680519D8483D
:1007F0000068001DFFF782FD2846FFF76AFFFFF73C
:100800000AFF06460EB900F01BFB70BD70B504462A
:1008100000F01CFB14B9CE48006800E020460646F4
:10082000F56A00F01CFB284670BD2DE9F041064634
:100830000D464FF00008052D00D3042500F006FBFF
:10084000C3480068864200D1002616B9C048006837
:1008500000E030460446E76AAF422DD0BD4203D9DE
:100860002EB14FF0010802E00EB94FF00108E56229
:10087000C5F10500A06107EB8701B64A02EB8101D3
:100880006069884213D1201DFFF738FDB249E06A44
:100890000968884202D9B049E06A0860E16A01EB60
:1008A0008101AC4A02EB8100211DFFF7FFFCB8F18A
:1008B000010F01D100F0C4FA00F0D1FABDE8F081D7
:1008C000A148006818B10120A449086025E004E0AF
:1008D000A1480068401EA04908609F48006800EBDE
:1008E00080009C4951F820000028F1D09A490968FD
:1008F00001EB8101974A02EB810041684968416040
:1009000000F1080142688A4202D1416849684160A9
:100910004168C9688E4A116000BF704770B50446CF
:1009200000F094FA8A480068844200D1002414B987
:100930008748006800E020460546281DFFF7DEFCDA
:10094000A86A18B105F11800FFF7D8FC291D8448E2
:10095000FFF7ACFC00F083FA7CB98248006810B164
:1009600000F06EFA09E080480068012803D10020F9
:100970007749086001E0FFF7A3FF70BD10B501469D
:1009800000200A46764C5369A34201D1012300E0BE
:10099000002383B1754C936AA34201D1012300E087
:1009A0000023012B07D0936A0BB9012300E0002339
:1009B000012B00D1012010BD70B505462C4644B373
:1009C00063480068844224D000F040FA2046FFF7D4
:1009D000D5FF01281BD1201DFFF790FC5E49E06A7E
:1009E0000968884202D95C49E06A0860E16A01EB63
:1009F0008101584A02EB8100211DFFF757FC544941
:100A0000E06A0968C96A884201D300F019FA00F067
:100A100026FA70BD70B5054600262C462046FFF725
:100A2000ADFF012826D148480068F0B94849E06A7E
:100A30000968C96A884201D3012000E00020064607
:100A4000201DFFF75BFC4449E06A0968884202D92F
:100A50004149E06A0860E16A01EB81013D4A02EB2D
:100A60008100211DFFF722FC04E004F118013F483A
:100A7000FFF71CFC304670BD10B50446206B00F03B
:100A80008AF9204600F087F910BD70B53848006833
:100A900018B3FFF767FE3748006808B9012000E087
:100AA00000200546FFF7B7FDBDB900F0CFF931488A
:100AB000C068C468201DFFF721FC2B480068401E59
:100AC000294908602A480068401E2949086000F04A
:100AD000C6F92046FFF7D0FF00BF70BD00BFFFF78B
:100AE000D4FF1C4800680128F9D900F0A9F9F6E7FD
:100AF0001FB50020009001900290034680221EA1A5
:100B000003901F48FFF76EFC0446012C09D1FFF744
:100B100095FB01201349086000200C49086000F093
:100B200079F91FBD10B5FFF789FB00200D4908605A
:100B300000F085F910BD10B500F088F9034804688D
:100B400000F08DF9204610BD240000201400002084
:100B500000000020E00000201C0000202C000020ED
:100B60009401002020000020100000206C010020D3
:100B70000C0000208001002049444C45000000008A
:100B8000DD0A000870B50025FFF758FB47480468E8
:100B9000FFF75BFB204670BD45480068704770B5A5
:100BA00006460C464348016818313046FFF78CFB77
:100BB00040480068001DFFF7A1FB601C30B93D48AC
:100BC0000168091D3C48FFF771FB05E037480068E4
:100BD00005192846FFF77DFD70BD70B50646F06823
:100BE000C46804F11800FFF789FB34480068A0B915
:100BF000201DFFF783FB3249E06A0968884202D969
:100C00002F49E06A0860E16A01EB81012D4A02EB9D
:100C10008100211DFFF74AFB04E004F118012A4876
:100C2000FFF744FB2349E06A0968C96A884201D397
:100C3000012500E00025284670BD244909680160AF
:100C40001A4909684160704770B504460D4600F0C6
:100C5000FDF82868401C08B900261FE01B492068E1
:100C60000968884206D0114960680968884201D83D
:100C7000012613E00D4960680968081A296888424E
:100C80000BD22868094A61681268511A401A286014
:100C90002046FFF7D2FF002600E0012600F0DFF833
:100CA000304670BD01200A490860704714000020DA
:100CB00010000020000000209401002024000020EB
:100CC0001C000020E00000206C010020300000200B
:100CD0002C0000202DE9F04104464FF00008FFF7FA
:100CE00041FD3D48006898B93C493D4A11600021EA
:100CF00051604FF488413B4A5160002111603748F0
:100D00004FF488414160114601600120324908607A
:100D100044B1103404F0070020B104F00700C0F122
:100D200008000444002C31D0B4F5884F2ED22C4F4B
:100D30003846056801E02F462D686868A04202D257
:100D400028680028F7D1274885421FD0386800F16D
:100D50001008286838606868001B202810D92E19F0
:100D60006868001B70606C6071681D4800E0006876
:100D7000026852688A42FAD302683260066000BF95
:100D8000194968680968081A17490860FFF743FCA1
:100D90004046BDE8F08170B506463546B6B1103D17
:100DA0002C46FFF7DFFC61680D4800E00068026830
:100DB00052688A42FAD30268226004600A49606875
:100DC0000968084408490860FFF725FC70BD06481B
:100DD000006870477047000050000020A801002004
:100DE0003C000020440000204C000020001F4FF079
:100DF00080730360001F0160001F0023036014382C
:100E000002602038704723484FF0E02148610720F6
:100E10000861704710B52048006840F47F001E4903
:100E200008600846006840F07F400860FFF7EBFF6D
:100E300000201A490860FFF7D9F9002010BD70475B
:100E40004FF0805014491C390860704710B5FFF707
:100E5000F5F912480068401C1049086010BD10B533
:100E60000E480068401E0D4908600846006808B931
:100E7000FFF7EBF910BD10B54FF0805006491C3953
:100E800008600024FFF7DAF9FFF753FBFFF7DDF9FD
:100E900010BD00003F19010020ED00E054000020CB
:100EA00031490143314A1160704770B50021002378
:100EB0000F22C47804B32D4C246804F4E064C4F514
:100EC000E064210AC1F10403CA40447804FA03F142
:100ED0008478144021430901254C0678A1550478F3
:100EE00004F01F050124AC4005786D11AD0005F13B
:100EF000E025C5F8004109E0047804F01F0501244D
:100F0000AC401C4D0678761145F8264070BD1A4A53
:100F10000A400243154B1B1F1A60704739B1134A30
:100F2000121D12680243114B1B1D1A6006E00F4A86
:100F3000121D126882430D4B1B1D1A607047042856
:100F400008D14FF0E021096941F004014FF0E0229F
:100F5000116107E04FF0E021096921F004014FF031
:100F6000E0221161704700000000FA050CED00E07E
:100F700000E400E080E100E080FFFF1F10B50446C0
:100F8000CC48844208D10121042000F02DFB00212F
:100F9000042000F029FB46E0C748844208D1012123
:100FA000082000F021FB0021082000F01DFB3AE0A2
:100FB000C248844208D10121102000F015FB002115
:100FC000102000F011FB2EE0BD48844208D1012121
:100FD000202000F009FB0021202000F005FB22E08A
:100FE000B848844208D10121402000F0FDFA0021D8
:100FF000402000F0F9FA16E0B348844208D10121FC
:10100000802000F0F1FA0021802000F0EDFA0AE0E3
:10101000AE48844207D10121801500F0E5FA002195
:10102000A01500F0E1FA10BD10B50121084600F04E
:10103000DBFA0021012000F0D7FA10BD2DE9F041C4
:10104000024600250026002000230024002791F8F6
:1010500003C00CF00F0591F803C00CF0100CBCF1AC
:10106000000F03D091F802C04CEA050591F800C0CA
:10107000BCF1000F31D0146800202BE04FF0010CC0
:101080000CFA00F3B1F800C00CEA03069E4220D12E
:1010900083004FF00F0C0CFA03F7BC4305FA03FC76
:1010A0004CEA040491F803C0BCF1280F06D14FF0BC
:1010B000010C0CFA00FCC2F814C00AE091F803C05D
:1010C000BCF1480F05D14FF0010C0CFA00FCC2F83E
:1010D00010C0401C0828D1D31460B1F800C0BCF186
:1010E000FF0F34DD546800202EE000F1080C4FF0B3
:1010F000010808FA0CF3B1F800C00CEA03069E429E
:1011000021D183004FF00F0C0CFA03F7BC4305FA12
:1011100003FC4CEA040491F803C0BCF1280F05D18C
:1011200000F1080C08FA0CF8C2F8148091F803C01A
:10113000BCF1480F07D100F1080C4FF0010808FA84
:101140000CF8C2F81080401C0828CED35460BDE8CB
:10115000F0814FF6FF710180022181700421C1707E
:1011600070470246002093680B400BB1012000E05D
:10117000002070470146886880B270470246002010
:10118000D3680B400BB1012000E0002070470146FE
:10119000C86880B2704701617047416170470AB109
:1011A000016100E041617047C16070474FF48032D7
:1011B0000A43826181618261826982697047024665
:1011C0000020434B18684FF68073184040EA021025
:1011D00008433F4B186070473E49C8617047F0B5FF
:1011E0000A46002300240021002500F00046B6F145
:1011F000004F02D1364EF16901E0354E7168C0F3FF
:10120000034583B200F44016B6F5401F08D121F023
:1012100070612F4E766826F070662D4F7E6012E06A
:1012200000F48016B6F5801F06D1032606FA05F4F1
:10123000A14341F0706106E0460D360103FA06F65F
:10124000B14341F0706122B1460D360103FA06F652
:10125000314300F00046B6F1004F02D11C4EF1615F
:1012600001E01B4E7160F0BD30B500228B071C0FF2
:101270000F2303FA04F2164B08338C1053F8243072
:101280009343134C08348D1044F8253023468C10BA
:1012900053F824308C07240F00FA04F423430C4C39
:1012A00008348D1044F8253030BD0A49DC3108601F
:1012B0007047000000080140000C01400010014090
:1012C0000014014000180140001C014000200140B2
:1012D0000000014000002042DF48006840F00100AB
:1012E000DD49086008464068DC490840DA49486042
:1012F00008460068DA490840D7490860084600688F
:1013000020F4802008600846406820F4FE00486011
:101310004FF41F0088607047CF49096821F480317D
:10132000CD4A11601146096821F480211160B0F5A1
:10133000803F03D0B0F5802F0ED106E0C649096882
:1013400041F48031C44A116007E0C349096841F49F
:10135000A021C14A116000E000BF00BF704710B576
:1013600001460022002300204A11012A02D1BA4C72
:10137000236806E0022A02D1B74C236A01E0B64C8A
:10138000636A01F01F02012494401C400CB101204B
:1013900000E0002010BD38B500200090002400259A
:1013A00000BF3120FFF7DBFF05460098401C00908E
:1013B0000098B0F5A06F01D0002DF2D03120FFF7DA
:1013C000CEFF08B1012400E00024204638BD0146CC
:1013D0000020A14A106820F0F80040EAC100106027
:1013E0007047A04908607047024600209A4B586831
:1013F00020F47C1042EA01031843974B5860704771
:1014000098490866704701460020934A506820F0CA
:1014100003000843506070478F48406800F00C009C
:101420007047014600208C4A506820F0F0000843C5
:101430005060704701460020874A506820F4E06001
:1014400008435060704701460020834A506820F4EA
:10145000605040EAC1005060704729B17E4A527A1C
:1014600002437D4B5A7204E07B4A527A82437A4BA4
:101470005A7270477B49D831086070470146002096
:10148000754A506820F4404008435060704700217E
:10149000714A20321170704A82F82010012802D05F
:1014A00004280AD104E001216B4A2032117005E0C2
:1014B0000521694A2032117000E000BF00BF70476B
:1014C0006949086070476449096A0143624A1162C8
:1014D0007047654944390860704730B500210022E3
:1014E000002400235C4D6D6805F00C0121B1042936
:1014F00005D0082923D105E05C4D056022E05B4D55
:1015000005601FE0544D6D6805F47012524D6D6812
:1015100005F48034022505EB92421CB9544D554325
:1015200005600BE04C4D6D6805F400351DB1504D64
:101530005543056002E04D4D5543056002E04B4DBB
:10154000056000BF00BF444D6D6805F0F00109095A
:10155000484D6B5C0568DD4045603F4D6D6805F4A6
:10156000E061090A434D6B5C4568DD4085603A4D9A
:101570006D6805F46051C90A3E4D6B5C4568DD40FD
:10158000C560354D6D6805F44041890B3A4D6B5C83
:10159000C568B5FBF3F5056130BD29B12E4A526926
:1015A00002432D4B5A6104E02B4A526982432A4B75
:1015B0005A61704729B1284A92690243264B9A61C1
:1015C00004E0254A92698243234B9A61704729B10E
:1015D000214AD2690243204BDA6104E01E4AD269F3
:1015E00082431D4BDA61704729B11B4AD26802431E
:1015F000194BDA6004E0184AD2688243164BDA606D
:10160000704729B1144A12690243134B1A6104E06E
:10161000114A12698243104B1A61704712494039CE
:10162000086070470F49C86470470B49C87170471C
:101630000948406A40F08070074948627047014697
:101640000020054A92680A400AB1012000E000200B
:101650007047014988727047001002400000FFF88F
:10166000FFFFF6FE000042428004424200127A0070
:1016700000093D00580000206800002001460020BD
:10168000FE4A106800F03800084310607047FB49BC
:10169000096821F00801F94A1160114609680143FF
:1016A00011607047F549096821F01001F34A116093
:1016B00011460968014311607047F148EF494860DD
:1016C000F04848607047EE48EC494860ED48486093
:1016D0007047EA48006940F08000E84908617047B7
:1016E000E648006940F08000E44908617047042042
:1016F000E249C96801F0010109B101200EE0DF49AA
:10170000C96801F0040109B1022007E0DB49C9689A
:1017100001F0100109B1032000E00420704700B57A
:1017200002460423FFF7E3FF034603E0FFF7DFFF72
:101730000346521E012B01D1002AF7D102B905231D
:10174000184600BD30B5044604254FF43020FFF79D
:10175000E6FF0546042D17D1C848006940F0020095
:10176000C649086108464461006940F040000861CC
:101770004FF43020FFF7D3FF0546C048006941F61B
:10178000FD710840BD490861284630BD10B50424EC
:101790004FF43020FFF7C3FF0446042C16D1B7489E
:1017A000006940F00400B54908610846006940F04E
:1017B000400008614FF43020FFF7B1FF0446AF4806
:1017C000006941F6FB710840AC490861204610BD34
:1017D00000B502460423FFF78AFF034603E0FFF744
:1017E00086FF0346521E012B01D1002AF7D102B910
:1017F0000523184600BD10B504244FF43020FFF730
:10180000E7FF0446042C16D19C48006940F0040010
:101810009A4908610846006940F0400008614FF4A9
:101820003020FFF7D5FF04469448006941F6FB716C
:10183000084092490861204610BD00208F49C969BF
:1018400001F0020109B1012000E00020704730B52D
:10185000A5250424FFF7F1FF00B100254FF4302047
:10186000FFF75DFF0446042C3AD185488349886020
:10187000844888600846006940F0200008610846F6
:10188000006940F0400008614FF43020FFF747FF47
:101890000446042C1BD17948006941F6DF710840E9
:1018A000764908610846006940F0100008617648F2
:1018B0000580E002FFF733FF0446052C10D06F4887
:1018C000006941F6EF7108406C49086108E0052C99
:1018D00006D06A48006941F6EF710840674908611F
:1018E000204630BD78B506460C4604250020009001
:1018F000E802FFF714FF0546042D24D15F48006974
:1019000040F001005D4908613480E802FFF707FFFD
:101910000546042D10D1B01C0090200C00990880C1
:10192000E802FFF7FCFE05465448006941F6FE71E7
:1019300008405249086106E05048006941F6FE71CE
:1019400008404E490861284678BD70B504460D46EA
:101950000426F002FFF7E3FE0646042E11D14748A5
:10196000006940F00100454908612580F002FFF759
:10197000D6FE06464148006941F6FE7108403F49DF
:101980000861304670BD70B505460E460424E0027D
:10199000FFF7C5FE0446042C17D139483749886043
:1019A000384888600846006940F0100008612E80C1
:1019B000E002FFF7B4FE0446052C06D02F4800696C
:1019C00041F6EF7108402D490861204670BD2DE9B0
:1019D000F04304464FF6FF763746B046B14604253D
:1019E000E443E6B2C4F30727C4F307484FEA146997
:1019F000E802FFF794FE0546042D49D120481F490F
:101A00008860204888600846006940F0100008613E
:101A1000FF2E06D01C4808300680E802FFF77FFE44
:101A20000546042D08D1FF2F06D017480A3007803D
:101A3000E802FFF774FE0546042D0AD1B8F1FF0F46
:101A400007D011480C30A0F80080E802FFF767FECD
:101A50000546042D0AD1B9F1FF0F07D00A480E3010
:101A6000A0F80090E802FFF75AFE0546052D0FD0BA
:101A70000248006941F6EF71084007E0002002408B
:101A800023016745AB89EFCD00F8FF1F6649086168
:101A90002846BDE8F08330B5054604244FF43020D5
:101AA000FFF73DFE0446042C41D160485E49886042
:101AB0005F4888600846006940F0200008610846D9
:101AC000006940F0400008614FF43020FFF727FE26
:101AD0000446042C22D15448006941F6DF710840C5
:101AE000514908610846006940F0100008611DB1C5
:101AF00000205049088002E0A5204E4908804FF49C
:101B00003020FFF70CFE0446052C10D04648006933
:101B100041F6EF7108404449086108E0052C06D001
:101B20004148006941F6DF7108403F49086120469D
:101B300030BDF0B505460E46174604243B483A49E9
:101B400088603B488860E002FFF7E9FD0446042C0A
:101B500019D13548006940F010003349086147F059
:101B6000F800304328433349891C0880E002FFF71E
:101B7000D6FD0446052C06D02B48006941F6EF71CE
:101B80000840294908612046F0BD2748C0698008FF
:101B900070472548006A704700202349096801F012
:101BA000200109B1012000E00020704729B11E4A40
:101BB000126902431C4B1A6104E01B4A12698243FA
:101BC000194B1A61704701460020012908D1164AB5
:101BD000D26902F001020AB1012008E0002006E00B
:101BE000114AD2680A400AB1012000E00020704783
:101BF0000D49C860704704200B49C96801F0010114
:101C000009B101200EE00849C96801F0040109B1D9
:101C1000022007E00449C96801F0100109B103205E
:101C200000E00420704700000020024023016745C7
:101C3000AB89EFCD00F8FF1F10B50446FA48844287
:101C400008D101214015FFF7CFFC00216015FFF7F7
:101C5000CBFC17E0F548844208D101210015FFF7BD
:101C6000C3FC00212015FFF7BFFC0BE0F0488442C5
:101C700008D10121C803FFF7B7FC00214FF4004051
:101C8000FFF7B2FC10BD30B50246002000235068BB
:101C9000E84C20400D790C6844EA0524204350604C
:101CA0009068E54C2040D1E902542C434D7944EA38
:101CB000450420439060D06A20F470000C7C641EC0
:101CC000E4B2234340EA0350D06230BD00210160FA
:101CD000017141718160C16001210174704721B1BE
:101CE000826842F00102826003E0826822F0010211
:101CF0008260704721B1826842F48072826003E0A2
:101D0000826822F480728260704710B50023CBB2E3
:101D10001AB144681C43446002E044689C43446038
:101D200010BD816841F008018160704701460020C4
:101D30008A6802F008020AB1012000E00020704722
:101D4000816841F0040181607047014600208A6883
:101D500002F004020AB1012000E00020704721B126
:101D6000826842F4A002826003E0826822F4A0024A
:101D700082607047014600208A6802F480020AB13E
:101D8000012000E00020704710B50A460021002322
:101D9000416821F46041531E41EA4331416010BD66
:101DA00021B1426842F40062426003E0426822F4DA
:101DB000006242607047F0B504460D4600200021E5
:101DC000092D11DDE068A5F10A0606EB4607072696
:101DD00006FA07F18843A5F10A0606EB460603FA60
:101DE00006F10843E0600CE0206905EB4507072693
:101DF00006FA07F1884305EB450603FA06F10843A6
:101E00002061072A0FDA606B561E06EB86071F2635
:101E100006FA07F18843561E06EB860605FA06F118
:101E20000843606322E00D2A0FDA206BD61F06EB11
:101E300086071F2606FA07F18843D61F06EB86069B
:101E400005FA06F10843206310E0E06AA2F10D06EE
:101E500006EB86071F2606FA07F18843A2F10D0656
:101E600006EB860605FA06F10843E062F0BD21B1F3
:101E7000826842F48012826003E0826822F4801259
:101E8000826070470146C86C80B2704766484C302B
:101E90000068704721B1426842F48062426003E00A
:101EA000426822F480624260704721B1426842F485
:101EB0008052426003E0426822F4805242607047E0
:101EC0000A460021816821F4E04111438160704796
:101ED00021B1826842F40042826003E0826822F409
:101EE00000428260704721B1826842F4021282602F
:101EF00003E0826822F402128260704701460020EB
:101F00008A6802F400120AB1012000E00020704744
:101F1000F0B504461546002000220026092911DDEF
:101F2000E068A1F10A0707EB470C072707FA0CF254
:101F30009043A1F10A0707EB470703FA07F21043A2
:101F4000E0600CE0206901EB410C072707FA0CF276
:101F5000904301EB410703FA07F210432061A06BA5
:101F6000C0F30156EF1C06F1010CA7EB0C0707EBC1
:101F7000870C1F2707FA0CF29043EF1C06F1010CA7
:101F8000A7EB0C0707EB870701FA07F21043A063E2
:101F9000F0BD10B50A4600210023816B21F44011E9
:101FA000531E41EA0351816310BD08B5002300931D
:101FB0000090009B0B440093009B1A6008BD08B57D
:101FC000024600200090009201F12800009B184476
:101FD00000900098006880B208BD0A460021416860
:101FE000164B19401143416070474162826270474D
:101FF0000A460021416821F01F01114341607047EA
:1020000040B109490831096841F40001064A083223
:10201000116007E004490831096821F40001024A0F
:102020000832116070470000002401400028014080
:10203000003C0140FFFEF0FFFDF7F1FFFFFD3FFF19
:102040000246002013680B400BB1012000E0002085
:102050007047CA430260704770B5024600200023F3
:1020600000240B125568CEB205EA060415681D401F
:1020700015B10CB1012000E0002070BD00220A1251
:10208000D34303607047000001684FF6FE721140B1
:1020900001600021016041608160C1608D4988421A
:1020A00008D18C490839496841F00F01894A083A3A
:1020B00051608AE087491431884208D1854908393E
:1020C000496841F0F001834A083A51607DE0814956
:1020D0002831884208D17F490839496841F4706144
:1020E0007C4A083A516070E07A493C31884208D114
:1020F00078490839496841F47041764A083A516094
:1021000063E074495031884208D1724908394968FE
:1021100041F470216F4A083A516056E06D496431CC
:10212000884208D16B490839496841F47001694A0D
:10213000083A516049E067497831884208D16549D9
:102140000839496841F07061624A083A51603CE0E0
:102150006149884206D1011F096841F00F01021F41
:10216000116032E05C491431884208D15A49091F94
:10217000096841F0F001584A121F116025E05649E4
:102180002831884208D15449091F096841F4706117
:10219000514A121F116018E04F493C31884208D162
:1021A0004D49091F096841F470414B4A121F1160E3
:1021B0000BE049495031884207D14749091F096856
:1021C00041F47021444A121F1160704710B500227B
:1021D000026847F6F0739A430C6A8B6823430C69D4
:1021E00023434C6923438C692343CC6923434C6AC2
:1021F00023438C6A23431A430260CB6843600B6815
:1022000083604B68C36010BD002101604160816044
:10221000C160016141618161C161016241628162AC
:10222000704721B1026842F00102026004E00268D6
:102230004FF6FE731A40026070471AB103680B43F1
:10224000036002E003688B4303607047416070479E
:102250000146486880B2704701460020002201F024
:1022600080531BB11C4B083B1A6802E0194B083B1A
:102270001A6802EA01030BB1012000E00020704758
:1022800000F0805119B11449091F086002E011499A
:1022900008394860704701460020002201F0805351
:1022A0001BB10D4B083B1A6802E00A4B083B1A6849
:1022B00002EA01030BB1012000E00020704700F0AA
:1022C000805119B10449091F086002E00149083929
:1022D00048607047080002400804024010B50446F8
:1022E000FE48844208D10121C014FFF77DF9002186
:1022F000E014FFF779F9C4E0B4F1804F08D101216F
:102300000846FFF77EF900210120FFF77AF9B8E0CF
:10231000F348844208D101210220FFF772F900211D
:102320000220FFF76EF9ACE0EE48844208D10121AB
:102330000420FFF766F900210420FFF762F9A0E00E
:10234000E948844208D101210820FFF75AF9002109
:102350000820FFF756F994E0E448844208D10121AF
:102360001020FFF74EF900211020FFF74AF988E00E
:10237000DF48844208D101212020FFF742F90021E3
:102380002020FFF73EF97CE0DA48844208D10121A1
:102390004014FFF729F900216014FFF725F970E0D8
:1023A000D548844209D10121C804FFF71DF9002155
:1023B0004FF40020FFF718F963E0D048844209D1B8
:1023C00001210805FFF710F900214FF48010FFF7F5
:1023D0000BF956E0CA48844209D101214805FFF7AC
:1023E00003F900214FF40010FFF7FEF849E0C5485B
:1023F000844208D101214020FFF703F90021402049
:10240000FFF7FFF83DE0C048844208D10121802059
:10241000FFF7F7F800218020FFF7F3F831E0BB4821
:10242000844208D101218015FFF7EBF80021A015A7
:10243000FFF7E7F825E0B648844209D101210804F6
:10244000FFF7D2F800214FF48030FFF7CDF818E005
:10245000B048844209D101214804FFF7C5F80021A2
:102460004FF40030FFF7C0F80BE0AB48844208D1CE
:1024700001218804FFF7B8F800214FF48020FFF70E
:10248000B3F810BD00220288944B98420ED0994BAD
:1024900098420BD0B0F1804F08D0914B984205D0B4
:1024A000904B984202D0904B984204D14FF68F73D4
:1024B0001A404B881A438D4B984207D08C4B984258
:1024C00004D04FF6FF431A40CB881A4302808B8812
:1024D00083850B880385814B98420BD0854B9842AE
:1024E00008D08B4B984205D08A4B984202D08A4B39
:1024F000984201D10B7A038601238382704770B51D
:10250000002400220023058C4FF6FE76354005841A
:10251000028C8388048B4FF68F752C40B51E2C409F
:102520000D882C43751E2A400D892A434D882A4365
:102530006A4DA8420BD06F4DA84208D0744DA842F6
:1025400005D0744DA84202D0734DA84213D14FF666
:10255000F7752A404D892A434FF6FB752A408D882E
:102560002A434FF6FF652B404FF6FF552B408D89D0
:102570002B43CD892B4383800483CD8885860284B9
:1025800070BD70B5002400220023058C4FF6EF7655
:1025900035400584028C8388048B48F6FF752C40F7
:1025A0004FF6FF452C400D884FF6FF7606EA0525CD
:1025B0002C434FF6DF752A400D8906EA05152A439C
:1025C0004D8806EA05152A43444DA84202D0494DDC
:1025D000A8421DD14FF67F752A404D894FF6FF76F0
:1025E00006EA05152A434FF6BF752A408D8806EA8C
:1025F00005152A434FF6FF352B404FF2FF752B4050
:102600008D8906EA85052B43CD8906EA85052B438E
:1026100083800483CD880587028470BD70B5002453
:1026200000220023058C4FF6FF6635400584028C9E
:102630008388848B4FF68F752C404FF6FC752C40A9
:102640000D882C434FF6FF552A400D894FF6FF7633
:1026500006EA05252A434D8806EA05252A431F4D2B
:10266000A84202D0234DA8421DD14FF2FF752A4047
:102670004D894FF6FF7606EA05252A434FF6FF35CA
:102680002A408D8806EA05252A434EF6FF752B4021
:102690004DF6FF752B408D8906EA05152B43CD8934
:1026A00006EA05152B4383808483CD8885870284C1
:1026B00070BD70B5002200230024058C4EF6FF7615
:1026C00035400584038C8488828B48F6FF752A4048
:1026D0004FF6FF452A400D8820E00000002C014005
:1026E0000004004000080040000C004000100040C2
:1026F0000014004000340140004C014000500140F3
:102700000054014000180040001C00400020004020
:102710000040014000440140004801404FF6FF7670
:1027200006EA05252A434DF6FF752B400D8906EA7A
:1027300005352B434D8806EA05352B43FA4DA84253
:1027400002D0FA4DA84208D14BF6FF752C408D8976
:102750004FF6FF7606EA85152C4384808283CD8868
:10276000A0F84050038470BD828B4FF2FF331A40B3
:102770008283828B4FF6FF7303EA01231A4382831D
:102780007047F0B50C461546002200210026078C44
:102790004EF6FF7C07EA0C070784828B018C4FF60C
:1027A000FF7707EA043640F6FF473A404FF6FF77D7
:1027B00007EA05273A434FF6FF7707EA03373A431C
:1027C000D94FB8420ED0D94FB8420BD0B0F1804F9C
:1027D00008D0D74FB84205D0D64FB84202D0D64F16
:1027E000B84206D14DF6FF77394046F48057394359
:1027F00005E047F6FF57394044F480573943828358
:102800000184F0BD828B4FF6F3731A408283828B72
:102810000A4382837047F0B50C461546002200211A
:102820000026078C4FF6FF6C07EA0C070784828BA3
:10283000018C4FF6FF7707EA04264FF60C773A40F3
:102840004FF6FF7707EA03172F433A43B64FB842D4
:102850000ED0B64FB8420BD0B0F1804F08D0B44F75
:10286000B84205D0B34FB84202D0B34FB84206D1F8
:102870004FF6FF57394046F48077394305E04FF271
:10288000FF57394044F48077394382830184F0BD97
:10289000028B4FF2FF331A400283028B4FF6FF7315
:1028A00003EA01231A4302837047F0B50C4615462C
:1028B000002200210026078C4FF6EF7C07EA0C0768
:1028C0000784028B018C4FF6FF7707EA041640F667
:1028D000FF473A404FF6FF7707EA03373A434FF690
:1028E000FF7707EA05273A438F4FB8420ED08F4F44
:1028F000B8420BD0B0F1804F08D08D4FB84205D010
:102900008C4FB84202D08C4FB84206D14FF6DF77D9
:10291000394046F01007394305E04FF65F773940FC
:1029200044F01007394302830184F0BD028B4FF657
:10293000F3731A400283028B0A4302837047F0B597
:102940000C46154600220021068C4FF6FE773E40CD
:102950000684028B018C4FF60C7632407E1C06EA10
:1029600003162E433243704EB0420ED06F4EB0422B
:102970000BD0B0F1804F08D06D4EB04205D06D4EF7
:10298000B04202D06C4EB04206D14FF6FD763140D7
:1029900044F00106314305E04FF6F576314044F04E
:1029A0000106314302830184F0BD70B505460C4633
:1029B0005D4885420ED05D4885420BD0B5F1804F11
:1029C00008D05B48854205D05A48854202D05A4813
:1029D000854200D100E000BF208850B92389A28839
:1029E00061882846FFF7ABFFE1882846FFF79EFF86
:1029F00025E0208804280AD12389A28861882846F6
:102A0000FFF753FFE1882846FFF742FF17E02088D1
:102A100008280AD12389A28861882846FFF7FBFE8F
:102A2000E1882846FFF7EEFE09E02389A288618845
:102A30002846FFF7A6FEE1882846FFF795FE70BD01
:102A40002DE9F04105460C4600260127608808B9AB
:102A5000022600E00026A088012801D1022700E01C
:102A600001272088A0B92389A28861882846FFF71A
:102A700066FFE1882846FFF759FF23893A46314629
:102A80002846FFF712FFE1882846FFF701FF13E011
:102A90002389A28861882846FFF707FFE188284636
:102AA000FFF7F6FE23893A4631462846FFF747FFEF
:102AB000E1882846FFF73AFFBDE8F0810A884B8895
:102AC0001A438B881A43CB881A430B891A434B89C4
:102AD0001A438B891A43A0F8442070474FF6FF71C0
:102AE000818000210180C1804180017270470021F6
:102AF000018041808180C180018141818181C181CA
:102B00007047002101804180012181800021C18026
:102B1000018170470021018041808180C180018155
:102B20004181818170470000002C01400034014048
:102B30000004004000080040000C004021B1028861
:102B400042F00102028004E002884FF6FE731A4050
:102B50000280704731B1B0F8442042F40042A0F83E
:102B6000442005E0B0F84420C2F30E02A0F844204F
:102B700070471AB183890B43838102E083898B43B9
:102B8000838170478182704741EA0203A0F8483090
:102B900070471AB183890B43838102E083898B4399
:102BA0008381704701894FF6F872114001817047A7
:102BB0000A46002101894FF68F73194011430181A4
:102BC000704730B504460D4629462046FFF7F0FF12
:102BD000208940F00700208130BD2DE9F0410446F6
:102BE0000D4616461F46602D06D13B460122314652
:102BF0002046FFF75AFE05E03B46012231462046BB
:102C0000FFF79DFE29462046FFF7D2FF208940F0BE
:102C100007002081BDE8F08130B50C460021018914
:102C2000C9B24FF6FF7505EA03251543254329432D
:102C3000018130BD2DE9F04105460E461746984604
:102C4000002443463A4631462846FFF7E5FF2C89E3
:102C50004FF6F870044044F007044FF68F700440BC
:102C600044F070042C81BDE8F081F0B504460D46B7
:102C700016461F463B46324629462046FFF7CCFF04
:102C8000208940F480402081F0BD01858282704718
:102C90000A46002101884FF68F73194011430180C5
:102CA0007047F0B50C4615461E4600210022002351
:102CB0000189028B038C4FF6F877394021434FF698
:102CC000FC473A4040F201173A434FF6DD773B406C
:102CD0004FF6FF7707EA06172F433B430181028334
:102CE0000384F0BD0A460021018B4FF68F73194013
:102CF0001143018370470A460021018B48F6FF7398
:102D000019404FF6FF7303EA02231943018370470A
:102D10000A460021818B4FF68F731940114381833E
:102D200070470A460021818B48F6FF7319404FF621
:102D3000FF7303EA022319438183704721B102889C
:102D400042F08002028004E002884FF67F731A404E
:102D50000280704721B1828842F00402828004E040
:102D600082884FF6FB731A408280704721B18288B7
:102D700042F00802828004E082884FF6F7731A401E
:102D80008280704721B1828842F00102828004E093
:102D900082884FF6FE731A40828070470A460021EF
:102DA000018B4FF6F77319401143018370470A46B0
:102DB0000021018B4FF2FF7319404FF6FF7303EAB6
:102DC00002231943018370470A460021818B4FF685
:102DD000F77319401143818370470A460021818BA4
:102DE0004FF2FF7319404FF6FF7303EA02231943B2
:102DF000818370470A460021018B4FF6FB7319400F
:102E00001143018370470A460021018B4FF6FF33BF
:102E100019404FF6FF7303EA0223194301837047F9
:102E20000A460021818B4FF6FB73194011438183C1
:102E300070470A460021818B4FF6FF3319404FF649
:102E4000FF7303EA02231943818370470A46002176
:102E5000018B4FF67F7319401143018370470A4677
:102E60000021018BC1F30E014FF6FF7303EA022329
:102E70001943018370470A460021818B4FF67F7307
:102E800019401143818370470A460021818BC1F3A9
:102E90000E014FF6FF7303EA022319438183704743
:102EA0000A460021018C4FF6FD731940114301843D
:102EB00070470A460021018C4FF6F7731940114301
:102EC000018470470A460021018C4FF6DF731940D8
:102ED0004FF6FF7303EA02131943018470470A4651
:102EE0000021018C4FF67F7319404FF6FF7303EA00
:102EF00002131943018470470A460021018C4FF6E2
:102F0000FF5319404FF6FF7303EA0223194301846C
:102F100070470A460021018C4FF2FF7319404FF6AB
:102F2000FF7303EA02231943018470470A46002114
:102F3000018C4DF6FF7319404FF6FF7303EA02331D
:102F400019430184704730B5002301248C40A3B29B
:102F5000048C9C430484048C02FA01F5ADB22C432A
:102F6000048430BD30B5002304248C40A3B2048C0B
:102F70009C430484048C02FA01F5ADB22C43048412
:102F800030BD70B5034600200024184618300125D6
:102F90008D40ACB21D8CA5431D8409B1082909D10F
:102FA00000EB6100056825F07005056005681543B4
:102FB00005600EE00D1FC5F34E052844056825F495
:102FC000E045056005684FF6FF7606EA02263543C0
:102FD000056070BD21B1028842F00202028004E067
:102FE00002884FF6FD731A400280704721B10288B3
:102FF00042F00402028004E002884FF6FB731A409C
:103000000280704721B1828842F08002828004E011
:1030100082884FF67F731A408280704702884FF68D
:10302000F7731A40028002880A4302807047828840
:103030004FF68F731A40828082880A4382807047DD
:1030400002894FF6F8731A40028102890A4302810D
:10305000704702894FF67F731A40028102890A4342
:1030600002817047818470478185704781867047EF
:103070000187704781877047A0F840107047028829
:103080004FF6FF431A40028002880A4302807047CD
:103090000146888E70470146088F70470146888F29
:1030A00070470146B1F8400070470146888C704770
:1030B0000146088D704702460020138A0B400BB171
:1030C000012000E000207047CA430282704730B5FB
:1030D0000246002000230024158A05EA0103958991
:1030E00005EA010413B10CB1012000E0002030BD5D
:1030F000CA43028270470000F0B50246002002EB8E
:1031000042067600604F97FBF6F10D4600240BE077
:10311000B5F5803F05D3461CB0B2461CB1FBF6F5B1
:1031200000E003E0661CB4B2642CF1DB00BF461C77
:10313000B1FBF6F18BB2554E3380361F3080F0BDB7
:1031400008B500BF00BFFDF7F6FC009086E0022145
:103150006846FDF70DFB701CC6B20F2E7EDD002603
:103160004FF480414A48FEF709F828B94FF48041EE
:103170004748FEF710F804E04FF480414448FEF75A
:103180000CF8002000F0BCFA42490880012000F051
:10319000B7FA40494880022000F0B2FA3D498880E1
:1031A000032000F0ADFA3B49C8800846408800285B
:1031B00003DD0846408887B200E0002736483749DB
:1031C000098820F81170002035490880002509E0A1
:1031D000314830F8150032490988084430490880E0
:1031E000681CC5B2102DF3DB642F20DD2D4800785C
:1031F00068B90122412125482C38FFF7BAFC01218A
:1032000022482C38FFF79AFC0120264908702449EF
:103210000888C11700EB11710C1140F6B8308442D8
:103220001CDA04EB440188B2FFF766FF16E01D4884
:103230000078012802D100201A49087000211348A3
:103240002C38FFF77BFC012110482C38FFF73FFF9B
:1032500020B101210D482C38FFF74AFF77E71FB551
:1032600000F058F900200123CDE900300290034618
:1032700080220DA10390AFF23710FDF7B3F8FDF7F0
:1032800037FC002004B010BD00A24A042C08004006
:1032900000200140AE000020A84500208C00002046
:1032A0008E0000208A0000205461736B3100000002
:1032B0003EB5044601210420FEF789F9F648FFF7E0
:1032C0000DF8F548FFF76EFC42F62F20ADF804002C
:1032D0000020ADF80000ADF80600ADF80200694628
:1032E000ED48FFF7CFF80121EB48FFF727FD01225A
:1032F0004121E948FFF73DFC0121E748FFF71EFCAB
:103300003EBD00B585B001214802FEF753F94FF4E8
:103310000040FEF7B3F8002000908DF804008DF80F
:1033200005004FF4602002900020039001208DF8EA
:1033300010006946D948FEF7A6FC0021D748FEF7E1
:10334000D9FC0121D548FEF7CAFCD448FEF7E9FCB8
:1033500000BFD248FEF7EAFC0028FAD1CF48FEF7BA
:10336000EFFC00BFCD48FEF7F0FC0028FAD105B015
:1033700000BD08B5012140F26110FEF71BF940F2D3
:103380000110ADF8000010208DF8030003208DF827
:1033900002006946C248FDF751FE0220ADF8000068
:1033A00010208DF8030003208DF802006946BD4807
:1033B000FDF744FE0820ADF8000010208DF8030052
:1033C00003208DF802006946B748FDF737FE4FF439
:1033D0008040ADF8000010208DF8030003208DF828
:1033E00002006946B148FDF729FE4FF40050ADF8E0
:1033F000000010208DF8030003208DF802006946BC
:10340000A948FDF71BFE0120ADF8000048208DF80B
:10341000030002208DF802006946A548FDF70EFE64
:103420000E20ADF8000000208DF8030069469C488E
:10343000FDF704FE4FF40050ADF8000018208DF8A1
:10344000030003208DF8020069469748FDF7F6FD5A
:1034500001210803FDF7C3FE08BD08B500214FF0A8
:103460000060FDF754FD4FF44070FDF719FD1E207C
:103470008DF8000000208DF8010003208DF8020077
:1034800001208DF803006846FDF70FFD08BD10B55B
:103490000420FDF754FD10BD10B5FDF71DFF4FF4DE
:1034A0008030FDF739FFFDF776FF0446012C24D16B
:1034B0000020FDF7B6FF0020FDF7C5FFA002FDF7D5
:1034C000B9FF0220FEF7DAF81020FEF7EBF84FF410
:1034D000E0112004FDF788FF0120FDF791FF00BFF8
:1034E0003920FDF73CFF0028FAD00220FDF78BFFC2
:1034F00000BFFDF791FF0828FBD101218920FEF7CD
:1035000059F801210846FEF748F801210420FEF78A
:1035100051F810BD10B5FFF7BFFFFFF7B8FFFFF779
:103520009CFFFFF726FFFFF7ECFE4FF4E150FFF79B
:10353000BFFE10BD00B58BB001210846FEF72DF887
:103540005C48FEF7A1FD55484C3000905A48019068
:103550000020029006200390002004908020059017
:1035600040000690800007902020089000020990FB
:1035700000200A9069464F48FEF728FE01214D4879
:10358000FEF74FFE0BB000BD1FB504466846FFF7BF
:10359000AEFA6020ADF80000ADF806400020ADF8AE
:1035A00008000120ADF8020069463B48FEF7E9FF3C
:1035B00008213948FFF7FBFB01213748FFF7CAFA1A
:1035C0001FBD10B53548FEF75DFC3C4908603A4820
:1035D00000883B49086038484088486010BD10B5F5
:1035E00001212D48FFF773FD002854D001212A48FE
:1035F000FFF77EFD33480088401C324908800846AA
:103600000088B0F5347F01DB002008802D48008859
:103610004FF4B47190FBF1F201FB12002A490880CB
:1036200008460088B0F5B47F01DA012000E00020F0
:1036300025490988B1F5AE7F01DB012100E00021B9
:10364000084021490988B1F5B47F01DA012100E081
:1036500000211D4A1288B2F5AE7F01DB012200E095
:1036600000221140084328B14FF480710C48FDF747
:1036700094FD30E014490988032291FBF2F000EB3D
:10368000D0714910A0EB410101291FD10902044862
:10369000FDF781FD1FE02AE0000800400024014002
:1036A00000080140000C01400014014000200140CE
:1036B0000018014008000240A000002094000020F3
:1036C00098000020AC000020AA0000204FF4807178
:1036D0000748FDF762FD0123054A0A21054800F06D
:1036E0002BF80223044A0A21044800F025F810BDF3
:1036F00000080140B6000020000C0140CA00002074
:1037000010B504460723012221460A48FEF753FB61
:1037100001210848FEF723FB00BF02210548FEF700
:103720008FFC0028F9D00348FEF7ACFB10BD014622
:1037300000207047002401402DE9F04104460F4667
:1037400015461E46208800EB400064490988B1EB0D
:10375000400F0CDD608800EB400060490988B1EB48
:10376000400F04DC31462846FDF717FDB3E06088C2
:1037700000EB400059490988B1EB400F0CDDA088EF
:1037800000EB400055490988B1EB400F04DC31469D
:103790002846FDF700FD9EE0A08800EB40004F4961
:1037A0000988B1EB400F0CDDE08800EB40004B498D
:1037B0000988B1EB400F04DC31462846FDF7EDFCEB
:1037C00089E0E08800EB400044490988B1EB400FF4
:1037D0000CDD208900EB400040490988B1EB400F27
:1037E00004DC31462846FDF7D6FC74E0208900EB66
:1037F00040003A490988B1EB400F0CDD608900EBCD
:10380000400036490988B1EB400F04DC31462846B8
:10381000FDF7C3FC5FE0608900EB40002F49098899
:10382000B1EB400F0CDDA08900EB40002B4909886B
:10383000B1EB400F04DC31462846FDF7ACFC4AE012
:10384000A08900EB400025490988B1EB400F0CDD51
:10385000E08900EB400021490988B1EB400F04DC0E
:1038600031462846FDF799FC35E0E08900EB400041
:103870001A490988B1EB400F0CDD208A00EB4000AB
:1038800016490988B1EB400F04DC31462846FDF7A4
:1038900082FC20E0208A00EB400010490988B1EB4F
:1038A000400F0CDD608A00EB40000C490988B1EB49
:1038B000400F04DC31462846FDF76FFC0BE0608AC0
:1038C00000EB400005490988B1EB400F03DD3146AC
:1038D0002846FDF760FCBDE8F0810000AC00002048
:1038E00002F0FF0343EA032242EA024200F030B84A
:1038F00010B5044610F0030F08BF11F0030F40F09D
:1039000015804FF0013E121FC0F20E8051F8043BAB
:10391000A3EB0E0C2CEA030C1CEACE1C08BF40F8EB
:10392000043BF0D0A1F1040102F10402521E08DBB5
:1039300011F8013B002B00F8013BF7D1114600F0D4
:1039400005F8204610BD7047704770474FF00002E1
:103950000429C0F0128010F0030C00F01B80CCF1A1
:10396000040CBCF1020F18BF00F8012BA8BF20F80F
:10397000022BA1EB0C0100F00DB85FEAC17C24BF63
:1039800000F8012B00F8012B48BF00F8012B70470D
:103990004FF0000200B5134694469646203922BFE8
:1039A000A0E80C50A0E80C50B1F12001BFF4F7AF33
:1039B000090728BFA0E80C5048BF0CC05DF804EB15
:1039C000890028BF40F8042B08BF704748BF20F883
:1039D000022B11F0804F18BF00F8012B704775467D
:1039E00000F02CF8AE4605006946534620F007006B
:1039F000854618B020B5FCF73BFCBDE820404FF0F1
:103A000000064FF000074FF000084FF0000B21F0C8
:103A10000701AC46ACE8C009ACE8C009ACE8C00995
:103A2000ACE8C0098D46704710B50446AFF300807E
:103A30002046BDE81040FCF7C2BB000000487047BC
:103A4000C845002001491820ABBEFEE72600020051
:103A500070470000743A000800000020E0000000F9
:103A60006C010008543B0008E000002048490000B9
:103A700088010008000000000000000000000000B5
:103A80000000000000000000000000000000000036
:103A90000000000000000000000000000000000026
:103AA000000000000000000000000000FFFFFFFF1A
:103AB0000000000000000000000000000000000006
:103AC0000044000000000000AAAAAAAA000000000A
:103AD00001020304010203040607080902040608A0
:103AE000B400DC05D007C409D20A010002000400BA
:103AF000080010000000EE02940249023D0200009E
:103B000000000000100000000000000000000000A5
:103B100000000000000000000000000000000000A5
:103B2000000000000000000000000F00130017005C
:103B30001A002D0031004B004F0053006D000500AE
:103B40000900230027002B0045005F006300670089
:043B50006A00000007
:0400000508000131BD
:00000001FF
